{
  "address": "0x788AC1A24A69DA952Ded90586d03F7F749c4D998",
  "abi": [
    {
      "inputs": [
        {
          "internalType": "string",
          "name": "_name",
          "type": "string"
        },
        {
          "internalType": "address",
          "name": "_quoteToken",
          "type": "address"
        },
        {
          "internalType": "address",
          "name": "_baseToken",
          "type": "address"
        },
        {
          "internalType": "address",
          "name": "_strategist",
          "type": "address"
        },
        {
          "internalType": "uint16",
          "name": "_percentDev",
          "type": "uint16"
        },
        {
          "internalType": "address",
          "name": "_company",
          "type": "address"
        },
        {
          "internalType": "address",
          "name": "_stakers",
          "type": "address"
        },
        {
          "internalType": "address",
          "name": "_algoDev",
          "type": "address"
        },
        {
          "internalType": "uint256",
          "name": "_maxCap",
          "type": "uint256"
        }
      ],
      "stateMutability": "nonpayable",
      "type": "constructor"
    },
    {
      "anonymous": false,
      "inputs": [
        {
          "indexed": true,
          "internalType": "address",
          "name": "owner",
          "type": "address"
        },
        {
          "indexed": true,
          "internalType": "address",
          "name": "spender",
          "type": "address"
        },
        {
          "indexed": false,
          "internalType": "uint256",
          "name": "value",
          "type": "uint256"
        }
      ],
      "name": "Approval",
      "type": "event"
    },
    {
      "anonymous": false,
      "inputs": [
        {
          "indexed": false,
          "internalType": "address",
          "name": "",
          "type": "address"
        },
        {
          "indexed": false,
          "internalType": "address",
          "name": "",
          "type": "address"
        },
        {
          "indexed": false,
          "internalType": "address",
          "name": "",
          "type": "address"
        },
        {
          "indexed": false,
          "internalType": "uint16",
          "name": "",
          "type": "uint16"
        },
        {
          "indexed": false,
          "internalType": "uint16",
          "name": "",
          "type": "uint16"
        },
        {
          "indexed": false,
          "internalType": "uint16",
          "name": "",
          "type": "uint16"
        },
        {
          "indexed": false,
          "internalType": "uint16",
          "name": "",
          "type": "uint16"
        },
        {
          "indexed": false,
          "internalType": "uint256",
          "name": "",
          "type": "uint256"
        }
      ],
      "name": "ParameterUpdated",
      "type": "event"
    },
    {
      "anonymous": false,
      "inputs": [
        {
          "indexed": false,
          "internalType": "address",
          "name": "",
          "type": "address"
        },
        {
          "indexed": false,
          "internalType": "uint256",
          "name": "",
          "type": "uint256"
        }
      ],
      "name": "Received",
      "type": "event"
    },
    {
      "anonymous": false,
      "inputs": [
        {
          "indexed": true,
          "internalType": "address",
          "name": "from",
          "type": "address"
        },
        {
          "indexed": true,
          "internalType": "address",
          "name": "to",
          "type": "address"
        },
        {
          "indexed": false,
          "internalType": "uint256",
          "name": "value",
          "type": "uint256"
        }
      ],
      "name": "Transfer",
      "type": "event"
    },
    {
      "inputs": [],
      "name": "SWAP_MIN",
      "outputs": [
        {
          "internalType": "uint256",
          "name": "",
          "type": "uint256"
        }
      ],
      "stateMutability": "view",
      "type": "function"
    },
    {
      "inputs": [
        {
          "internalType": "address",
          "name": "_address",
          "type": "address"
        }
      ],
      "name": "addToWhiteList",
      "outputs": [],
      "stateMutability": "nonpayable",
      "type": "function"
    },
    {
      "inputs": [],
      "name": "algoDev",
      "outputs": [
        {
          "internalType": "address",
          "name": "",
          "type": "address"
        }
      ],
      "stateMutability": "view",
      "type": "function"
    },
    {
      "inputs": [
        {
          "internalType": "address",
          "name": "owner",
          "type": "address"
        },
        {
          "internalType": "address",
          "name": "spender",
          "type": "address"
        }
      ],
      "name": "allowance",
      "outputs": [
        {
          "internalType": "uint256",
          "name": "",
          "type": "uint256"
        }
      ],
      "stateMutability": "view",
      "type": "function"
    },
    {
      "inputs": [
        {
          "internalType": "address",
          "name": "spender",
          "type": "address"
        },
        {
          "internalType": "uint256",
          "name": "amount",
          "type": "uint256"
        }
      ],
      "name": "approve",
      "outputs": [
        {
          "internalType": "bool",
          "name": "",
          "type": "bool"
        }
      ],
      "stateMutability": "nonpayable",
      "type": "function"
    },
    {
      "inputs": [
        {
          "internalType": "address",
          "name": "oneinch",
          "type": "address"
        },
        {
          "internalType": "uint256",
          "name": "amount",
          "type": "uint256"
        }
      ],
      "name": "approveTokensForOneinch",
      "outputs": [],
      "stateMutability": "nonpayable",
      "type": "function"
    },
    {
      "inputs": [
        {
          "internalType": "address",
          "name": "paraswap",
          "type": "address"
        },
        {
          "internalType": "uint256",
          "name": "amount",
          "type": "uint256"
        }
      ],
      "name": "approveTokensForParaswap",
      "outputs": [],
      "stateMutability": "nonpayable",
      "type": "function"
    },
    {
      "inputs": [
        {
          "internalType": "address",
          "name": "account",
          "type": "address"
        }
      ],
      "name": "balanceOf",
      "outputs": [
        {
          "internalType": "uint256",
          "name": "",
          "type": "uint256"
        }
      ],
      "stateMutability": "view",
      "type": "function"
    },
    {
      "inputs": [],
      "name": "baseToken",
      "outputs": [
        {
          "internalType": "address",
          "name": "",
          "type": "address"
        }
      ],
      "stateMutability": "view",
      "type": "function"
    },
    {
      "inputs": [],
      "name": "buy",
      "outputs": [],
      "stateMutability": "nonpayable",
      "type": "function"
    },
    {
      "inputs": [
        {
          "internalType": "bytes",
          "name": "swapCalldata",
          "type": "bytes"
        }
      ],
      "name": "buyOneinch",
      "outputs": [],
      "stateMutability": "nonpayable",
      "type": "function"
    },
    {
      "inputs": [
        {
          "internalType": "bytes",
          "name": "swapCalldata",
          "type": "bytes"
        }
      ],
      "name": "buyParaswap",
      "outputs": [],
      "stateMutability": "nonpayable",
      "type": "function"
    },
    {
      "inputs": [],
      "name": "company",
      "outputs": [
        {
          "internalType": "address",
          "name": "",
          "type": "address"
        }
      ],
      "stateMutability": "view",
      "type": "function"
    },
    {
      "inputs": [],
      "name": "decimals",
      "outputs": [
        {
          "internalType": "uint8",
          "name": "",
          "type": "uint8"
        }
      ],
      "stateMutability": "view",
      "type": "function"
    },
    {
      "inputs": [
        {
          "internalType": "address",
          "name": "spender",
          "type": "address"
        },
        {
          "internalType": "uint256",
          "name": "subtractedValue",
          "type": "uint256"
        }
      ],
      "name": "decreaseAllowance",
      "outputs": [
        {
          "internalType": "bool",
          "name": "",
          "type": "bool"
        }
      ],
      "stateMutability": "nonpayable",
      "type": "function"
    },
    {
      "inputs": [
        {
          "internalType": "uint256",
          "name": "amount",
          "type": "uint256"
        }
      ],
      "name": "depositBase",
      "outputs": [],
      "stateMutability": "nonpayable",
      "type": "function"
    },
    {
      "inputs": [
        {
          "internalType": "uint256",
          "name": "amount",
          "type": "uint256"
        }
      ],
      "name": "depositQuote",
      "outputs": [],
      "stateMutability": "nonpayable",
      "type": "function"
    },
    {
      "inputs": [
        {
          "internalType": "address",
          "name": "receiver",
          "type": "address"
        },
        {
          "internalType": "uint256",
          "name": "amount",
          "type": "uint256"
        }
      ],
      "name": "fundTransfer",
      "outputs": [],
      "stateMutability": "nonpayable",
      "type": "function"
    },
    {
      "inputs": [
        {
          "internalType": "address",
          "name": "spender",
          "type": "address"
        },
        {
          "internalType": "uint256",
          "name": "addedValue",
          "type": "uint256"
        }
      ],
      "name": "increaseAllowance",
      "outputs": [
        {
          "internalType": "bool",
          "name": "",
          "type": "bool"
        }
      ],
      "stateMutability": "nonpayable",
      "type": "function"
    },
    {
      "inputs": [
        {
          "internalType": "address",
          "name": "_address",
          "type": "address"
        }
      ],
      "name": "isWhitelisted",
      "outputs": [
        {
          "internalType": "bool",
          "name": "",
          "type": "bool"
        }
      ],
      "stateMutability": "view",
      "type": "function"
    },
    {
      "inputs": [],
      "name": "maxCap",
      "outputs": [
        {
          "internalType": "uint256",
          "name": "",
          "type": "uint256"
        }
      ],
      "stateMutability": "view",
      "type": "function"
    },
    {
      "inputs": [],
      "name": "name",
      "outputs": [
        {
          "internalType": "string",
          "name": "",
          "type": "string"
        }
      ],
      "stateMutability": "view",
      "type": "function"
    },
    {
      "inputs": [],
      "name": "oneinchCallAddr",
      "outputs": [
        {
          "internalType": "address",
          "name": "",
          "type": "address"
        }
      ],
      "stateMutability": "view",
      "type": "function"
    },
    {
      "inputs": [],
      "name": "pancakeRouter",
      "outputs": [
        {
          "internalType": "address",
          "name": "",
          "type": "address"
        }
      ],
      "stateMutability": "view",
      "type": "function"
    },
    {
      "inputs": [],
      "name": "paraswapCallAddr",
      "outputs": [
        {
          "internalType": "address",
          "name": "",
          "type": "address"
        }
      ],
      "stateMutability": "view",
      "type": "function"
    },
    {
      "inputs": [],
      "name": "percentBurn",
      "outputs": [
        {
          "internalType": "uint16",
          "name": "",
          "type": "uint16"
        }
      ],
      "stateMutability": "view",
      "type": "function"
    },
    {
      "inputs": [],
      "name": "percentDev",
      "outputs": [
        {
          "internalType": "uint16",
          "name": "",
          "type": "uint16"
        }
      ],
      "stateMutability": "view",
      "type": "function"
    },
    {
      "inputs": [],
      "name": "percentMax",
      "outputs": [
        {
          "internalType": "uint16",
          "name": "",
          "type": "uint16"
        }
      ],
      "stateMutability": "view",
      "type": "function"
    },
    {
      "inputs": [],
      "name": "percentStakers",
      "outputs": [
        {
          "internalType": "uint16",
          "name": "",
          "type": "uint16"
        }
      ],
      "stateMutability": "view",
      "type": "function"
    },
    {
      "inputs": [],
      "name": "percentUpbotsFee",
      "outputs": [
        {
          "internalType": "uint16",
          "name": "",
          "type": "uint16"
        }
      ],
      "stateMutability": "view",
      "type": "function"
    },
    {
      "inputs": [],
      "name": "poolSize",
      "outputs": [
        {
          "internalType": "uint256",
          "name": "",
          "type": "uint256"
        }
      ],
      "stateMutability": "view",
      "type": "function"
    },
    {
      "inputs": [],
      "name": "position",
      "outputs": [
        {
          "internalType": "uint256",
          "name": "",
          "type": "uint256"
        }
      ],
      "stateMutability": "view",
      "type": "function"
    },
    {
      "inputs": [],
      "name": "profit",
      "outputs": [
        {
          "internalType": "uint256",
          "name": "",
          "type": "uint256"
        }
      ],
      "stateMutability": "view",
      "type": "function"
    },
    {
      "inputs": [],
      "name": "quoteToken",
      "outputs": [
        {
          "internalType": "address",
          "name": "",
          "type": "address"
        }
      ],
      "stateMutability": "view",
      "type": "function"
    },
    {
      "inputs": [
        {
          "internalType": "address",
          "name": "_address",
          "type": "address"
        }
      ],
      "name": "removeFromWhiteList",
      "outputs": [],
      "stateMutability": "nonpayable",
      "type": "function"
    },
    {
      "inputs": [],
      "name": "resetTrade",
      "outputs": [],
      "stateMutability": "nonpayable",
      "type": "function"
    },
    {
      "inputs": [
        {
          "internalType": "bytes",
          "name": "swapCalldata",
          "type": "bytes"
        }
      ],
      "name": "resetTradeOneinch",
      "outputs": [],
      "stateMutability": "nonpayable",
      "type": "function"
    },
    {
      "inputs": [
        {
          "internalType": "bytes",
          "name": "swapCalldata",
          "type": "bytes"
        }
      ],
      "name": "resetTradeParaswap",
      "outputs": [],
      "stateMutability": "nonpayable",
      "type": "function"
    },
    {
      "inputs": [],
      "name": "sell",
      "outputs": [],
      "stateMutability": "nonpayable",
      "type": "function"
    },
    {
      "inputs": [
        {
          "internalType": "bytes",
          "name": "swapCalldata",
          "type": "bytes"
        }
      ],
      "name": "sellOneinch",
      "outputs": [],
      "stateMutability": "nonpayable",
      "type": "function"
    },
    {
      "inputs": [
        {
          "internalType": "bytes",
          "name": "swapCalldata",
          "type": "bytes"
        }
      ],
      "name": "sellParaswap",
      "outputs": [],
      "stateMutability": "nonpayable",
      "type": "function"
    },
    {
      "inputs": [
        {
          "internalType": "uint16",
          "name": "_percentDev",
          "type": "uint16"
        },
        {
          "internalType": "uint16",
          "name": "_percentUpbotsFee",
          "type": "uint16"
        },
        {
          "internalType": "uint16",
          "name": "_percentBurn",
          "type": "uint16"
        },
        {
          "internalType": "uint16",
          "name": "_percentStakers",
          "type": "uint16"
        },
        {
          "internalType": "address",
          "name": "_company",
          "type": "address"
        },
        {
          "internalType": "address",
          "name": "_stakers",
          "type": "address"
        },
        {
          "internalType": "address",
          "name": "_algoDev",
          "type": "address"
        },
        {
          "internalType": "uint256",
          "name": "_maxCap",
          "type": "uint256"
        }
      ],
      "name": "setParameters",
      "outputs": [],
      "stateMutability": "nonpayable",
      "type": "function"
    },
    {
      "inputs": [
        {
          "internalType": "address",
          "name": "_address",
          "type": "address"
        }
      ],
      "name": "setStrategist",
      "outputs": [],
      "stateMutability": "nonpayable",
      "type": "function"
    },
    {
      "inputs": [],
      "name": "soldAmount",
      "outputs": [
        {
          "internalType": "uint256",
          "name": "",
          "type": "uint256"
        }
      ],
      "stateMutability": "view",
      "type": "function"
    },
    {
      "inputs": [],
      "name": "stakers",
      "outputs": [
        {
          "internalType": "address",
          "name": "",
          "type": "address"
        }
      ],
      "stateMutability": "view",
      "type": "function"
    },
    {
      "inputs": [],
      "name": "strategist",
      "outputs": [
        {
          "internalType": "address",
          "name": "",
          "type": "address"
        }
      ],
      "stateMutability": "view",
      "type": "function"
    },
    {
      "inputs": [],
      "name": "symbol",
      "outputs": [
        {
          "internalType": "string",
          "name": "",
          "type": "string"
        }
      ],
      "stateMutability": "view",
      "type": "function"
    },
    {
      "inputs": [],
      "name": "totalSupply",
      "outputs": [
        {
          "internalType": "uint256",
          "name": "",
          "type": "uint256"
        }
      ],
      "stateMutability": "view",
      "type": "function"
    },
    {
      "inputs": [
        {
          "internalType": "address",
          "name": "recipient",
          "type": "address"
        },
        {
          "internalType": "uint256",
          "name": "amount",
          "type": "uint256"
        }
      ],
      "name": "transfer",
      "outputs": [
        {
          "internalType": "bool",
          "name": "",
          "type": "bool"
        }
      ],
      "stateMutability": "nonpayable",
      "type": "function"
    },
    {
      "inputs": [
        {
          "internalType": "address",
          "name": "sender",
          "type": "address"
        },
        {
          "internalType": "address",
          "name": "recipient",
          "type": "address"
        },
        {
          "internalType": "uint256",
          "name": "amount",
          "type": "uint256"
        }
      ],
      "name": "transferFrom",
      "outputs": [
        {
          "internalType": "bool",
          "name": "",
          "type": "bool"
        }
      ],
      "stateMutability": "nonpayable",
      "type": "function"
    },
    {
      "inputs": [],
      "name": "ubxt",
      "outputs": [
        {
          "internalType": "address",
          "name": "",
          "type": "address"
        }
      ],
      "stateMutability": "view",
      "type": "function"
    },
    {
      "inputs": [],
      "name": "vaultName",
      "outputs": [
        {
          "internalType": "string",
          "name": "",
          "type": "string"
        }
      ],
      "stateMutability": "view",
      "type": "function"
    },
    {
      "inputs": [],
      "name": "wbnb",
      "outputs": [
        {
          "internalType": "address",
          "name": "",
          "type": "address"
        }
      ],
      "stateMutability": "view",
      "type": "function"
    },
    {
      "inputs": [
        {
          "internalType": "address",
          "name": "",
          "type": "address"
        }
      ],
      "name": "whiteList",
      "outputs": [
        {
          "internalType": "bool",
          "name": "",
          "type": "bool"
        }
      ],
      "stateMutability": "view",
      "type": "function"
    },
    {
      "inputs": [
        {
          "internalType": "uint256",
          "name": "shares",
          "type": "uint256"
        }
      ],
      "name": "withdraw",
      "outputs": [],
      "stateMutability": "nonpayable",
      "type": "function"
    },
    {
      "stateMutability": "payable",
      "type": "receive"
    }
  ],
  "transactionHash": "0x19db09c296c86dd3fc04b070100ff4b0115cc4306610fe5021b4e3b1d509cb79",
  "args": [
    "WT BNB",
    "0xe9e7cea3dedca5984780bafc599bd69add087d56",
    "0xbb4CdB9CBd36B01bD1cBaEBF2De08d9173bc095c",
    "0x43C9Ac8E33a11D1C75fCB70B89502dA78f69CCA7",
    500,
    "0xAD3e4faC288bfa76d92210a25646c33de702174E",
    "0x4D5Fb87308a7B9C576a900e11f094628158627F6",
    "0x81e1b56039f35F19f17d3C5dC9a3EDC6Ca1D6F4A",
    "5000000000000000000000000"
  ],
  "solcInputHash": "c2f7555746c7d13b4f1067f1095f9e35",
  "bytecode": "0x608060405260006009819055600a819055600b55612710600c55600d80546001600160401b03191667015e015e000a01f41790553480156200004057600080fd5b5060405162004cc638038062004cc68339810160408190526200006391620005bd565b8860405160200162000076919062000704565b6040516020818303038152906040528960405160200162000098919062000704565b60408051601f198184030181529190528151620000bd90600390602085019062000446565b508051620000d390600490602084019062000446565b5050506001600160a01b038816620001215760405162461bcd60e51b815260206004820152601c602482015260008051602062004ca683398151915260448201526064015b60405180910390fd5b6001600160a01b038716620001685760405162461bcd60e51b815260206004820152601c602482015260008051602062004ca6833981519152604482015260640162000118565b6001600160a01b038616620001af5760405162461bcd60e51b815260206004820152601c602482015260008051602062004ca6833981519152604482015260640162000118565b6001600160a01b038416620001f65760405162461bcd60e51b815260206004820152601c602482015260008051602062004ca6833981519152604482015260640162000118565b6001600160a01b0383166200023d5760405162461bcd60e51b815260206004820152601c602482015260008051602062004ca6833981519152604482015260640162000118565b6001600160a01b038216620002845760405162461bcd60e51b815260206004820152601c602482015260008051602062004ca6833981519152604482015260640162000118565b8851620002999060129060208c019062000446565b50600f80546001600160a01b038681166001600160a01b0319928316179092556010805486841690831617905560118054858416908316179055600983905560058054898416908316811790915560009081526006602052604090819020805460ff19166001179055600780548c851690841617905560088054938b1693909216929092179055600d805461ffff881661ffff19909116179055805160028082526060820190925290816020016020820280368337505081516200036592600e925060200190620004d5565b50600854600e80546001600160a01b03909216916000906200038b576200038b62000734565b600091825260209091200180546001600160a01b0319166001600160a01b03928316179055600754600e80549190921691906001908110620003d157620003d162000734565b600091825260209091200180546001600160a01b03929092166001600160a01b031992831617905560138054821673def171fe48cf0115b1d80b88dc8eab59176fee5717905560148054909116731111111254fb6c44bac0bed2854e76f90643097d1790555062000787975050505050505050565b82805462000454906200074a565b90600052602060002090601f016020900481019282620004785760008555620004c3565b82601f106200049357805160ff1916838001178555620004c3565b82800160010185558215620004c3579182015b82811115620004c3578251825591602001919060010190620004a6565b50620004d19291506200052d565b5090565b828054828255906000526020600020908101928215620004c3579160200282015b82811115620004c357825182546001600160a01b0319166001600160a01b03909116178255602090920191600190910190620004f6565b5b80821115620004d157600081556001016200052e565b634e487b7160e01b600052604160045260246000fd5b60005b83811015620005775781810151838201526020016200055d565b8381111562000587576000848401525b50505050565b80516001600160a01b0381168114620005a557600080fd5b919050565b805161ffff81168114620005a557600080fd5b60008060008060008060008060006101208a8c031215620005dd57600080fd5b89516001600160401b0380821115620005f557600080fd5b818c0191508c601f8301126200060a57600080fd5b8151818111156200061f576200061f62000544565b604051601f8201601f19908116603f011681019083821181831017156200064a576200064a62000544565b816040528281528f60208487010111156200066457600080fd5b620006778360208301602088016200055a565b809d5050505050506200068d60208b016200058d565b97506200069d60408b016200058d565b9650620006ad60608b016200058d565b9550620006bd60808b01620005aa565b9450620006cd60a08b016200058d565b9350620006dd60c08b016200058d565b9250620006ed60e08b016200058d565b91506101008a015190509295985092959850929598565b6578554258545f60d01b815260008251620007278160068501602087016200055a565b9190910160060192915050565b634e487b7160e01b600052603260045260246000fd5b600181811c908216806200075f57607f821691505b602082108114156200078157634e487b7160e01b600052602260045260246000fd5b50919050565b61450f80620007976000396000f3fe6080604052600436106103545760003560e01c806359e039c5116101c6578063b51ae485116100f7578063e53d2c4c11610095578063f3ae6c5f1161006f578063f3ae6c5f14610a0c578063fa1a5f5914610a2c578063fccf006714610a42578063fed1252a14610a6257600080fd5b8063e53d2c4c146109d5578063ee20b6ca1461066f578063f38d0d40146109ec57600080fd5b8063c55dae63116100d1578063c55dae631461092d578063c7b9d5301461094d578063d5344f791461096d578063dd62ed3e1461098f57600080fd5b8063b51ae485146108c3578063bbbaa0d2146108e3578063c21ebd071461090557600080fd5b806390118b571161016457806398ee38d21161013e57806398ee38d21461084d578063a457c2d71461086e578063a6f2ae3a1461088e578063a9059cbb146108a357600080fd5b806390118b571461080357806393c585431461082357806395d89b411461083857600080fd5b806370a08231116101a057806370a082311461076f5780637cb89d54146107a55780638ade2168146107bb5780638d72647e146107db57600080fd5b806359e039c51461071957806366d16cc3146107395780636904c94d1461074f57600080fd5b806323b872dd116102a05780633af32abf1161023e57806347ee03941161021857806347ee0394146106a45780634ec18db9146106c4578063555af0fd146106d9578063597de10c146106f957600080fd5b80633af32abf1461064f57806343f41d2b1461066f578063457100741461068f57600080fd5b8063313ce5671161027a578063313ce567146105c3578063372c12b1146105df578063395093511461060f5780633a0130a81461062f57600080fd5b806323b872dd1461056357806327bed8ee146105835780632e1a7d4d146105a357600080fd5b80630da54f9f1161030d5780631dade782116102e75780631dade782146104d25780631fe4a686146104f5578063217a4b701461052d57806323548b8b1461054d57600080fd5b80630da54f9f1461046f57806318160ddd1461048f5780631a085fe1146104a457600080fd5b806301bf664814610399578063034dbc80146103bb57806306fdde03146103db57806309218e9114610406578063095ea7b31461042a5780630ace9ca01461045a57600080fd5b36610394577f88a5966d370b9919b20f3e2c13ff65706f196a4e32cc2c12bf57088f88525874333460405161038a929190613df7565b60405180910390a1005b600080fd5b3480156103a557600080fd5b506103b96103b4366004613e2c565b610a82565b005b3480156103c757600080fd5b506103b96103d6366004613e95565b610ad6565b3480156103e757600080fd5b506103f0610da9565b6040516103fd9190613f56565b60405180910390f35b34801561041257600080fd5b5061041c600a5481565b6040519081526020016103fd565b34801561043657600080fd5b5061044a610445366004613f89565b610e3b565b60405190151581526020016103fd565b34801561046657600080fd5b506103f0610e52565b34801561047b57600080fd5b506103b961048a366004613e95565b610ee0565b34801561049b57600080fd5b5060025461041c565b3480156104b057600080fd5b50600d546104bf9061ffff1681565b60405161ffff90911681526020016103fd565b3480156104de57600080fd5b50600d546104bf90640100000000900461ffff1681565b34801561050157600080fd5b50600554610515906001600160a01b031681565b6040516001600160a01b0390911681526020016103fd565b34801561053957600080fd5b50600754610515906001600160a01b031681565b34801561055957600080fd5b5061041c60095481565b34801561056f57600080fd5b5061044a61057e366004613fb3565b610f91565b34801561058f57600080fd5b506103b961059e366004613fef565b61103b565b3480156105af57600080fd5b506103b96105be366004613fef565b611442565b3480156105cf57600080fd5b50604051601281526020016103fd565b3480156105eb57600080fd5b5061044a6105fa366004613e2c565b60066020526000908152604090205460ff1681565b34801561061b57600080fd5b5061044a61062a366004613f89565b61181b565b34801561063b57600080fd5b506103b961064a36600461401a565b611857565b34801561065b57600080fd5b5061044a61066a366004613e2c565b611afe565b34801561067b57600080fd5b506103b961068a366004613f89565b611b1c565b34801561069b57600080fd5b506103b9611c5c565b3480156106b057600080fd5b506103b96106bf366004613e2c565b611ead565b3480156106d057600080fd5b5061041c611efb565b3480156106e557600080fd5b506103b96106f4366004613e95565b611f80565b34801561070557600080fd5b506103b9610714366004613e95565b61210f565b34801561072557600080fd5b506103b9610734366004613e95565b6122a8565b34801561074557600080fd5b5061041c600c5481565b34801561075b57600080fd5b50600f54610515906001600160a01b031681565b34801561077b57600080fd5b5061041c61078a366004613e2c565b6001600160a01b031660009081526020819052604090205490565b3480156107b157600080fd5b506104bf61271081565b3480156107c757600080fd5b50601354610515906001600160a01b031681565b3480156107e757600080fd5b5061051573bb4cdb9cbd36b01bd1cbaebf2de08d9173bc095c81565b34801561080f57600080fd5b50601454610515906001600160a01b031681565b34801561082f57600080fd5b506103b96122f0565b34801561084457600080fd5b506103f06123c4565b34801561085957600080fd5b50600d546104bf9062010000900461ffff1681565b34801561087a57600080fd5b5061044a610889366004613f89565b6123d3565b34801561089a57600080fd5b506103b961246c565b3480156108af57600080fd5b5061044a6108be366004613f89565b612583565b3480156108cf57600080fd5b506103b96108de366004613f89565b612590565b3480156108ef57600080fd5b506105156000805160206144ba83398151915281565b34801561091157600080fd5b506105157310ed43c718714eb63d5aa57b78b54704e256024e81565b34801561093957600080fd5b50600854610515906001600160a01b031681565b34801561095957600080fd5b506103b9610968366004613e2c565b612616565b34801561097957600080fd5b50600d546104bf90600160301b900461ffff1681565b34801561099b57600080fd5b5061041c6109aa3660046140aa565b6001600160a01b03918216600090815260016020908152604080832093909416825291909152205490565b3480156109e157600080fd5b5061041c620f424081565b3480156109f857600080fd5b50601154610515906001600160a01b031681565b348015610a1857600080fd5b506103b9610a27366004613fef565b61269d565b348015610a3857600080fd5b5061041c600b5481565b348015610a4e57600080fd5b506103b9610a5d366004613e95565b6129e3565b348015610a6e57600080fd5b50601054610515906001600160a01b031681565b6005546001600160a01b03163314610ab55760405162461bcd60e51b8152600401610aac906140dd565b60405180910390fd5b6001600160a01b03166000908152600660205260409020805460ff19169055565b6013546001600160a01b0316610afe5760405162461bcd60e51b8152600401610aac90614105565b610b0733611afe565b610b235760405162461bcd60e51b8152600401610aac9061413c565b600a54600114610b455760405162461bcd60e51b8152600401610aac90614165565b6008546040516370a0823160e01b81523060048201526000916001600160a01b0316906370a0823190602401602060405180830381865afa158015610b8e573d6000803e3d6000fd5b505050506040513d601f19601f82011682018060405250810190610bb2919061419c565b90508015610d9b57600854610bd0906001600160a01b031682612b1d565b6007546040516370a0823160e01b81523060048201529192506000916001600160a01b03909116906370a0823190602401602060405180830381865afa158015610c1e573d6000803e3d6000fd5b505050506040513d601f19601f82011682018060405250810190610c42919061419c565b6013546040519192506000916001600160a01b0390911690610c659086906141b5565b6000604051808303816000865af19150503d8060008114610ca2576040519150601f19603f3d011682016040523d82523d6000602084013e610ca7565b606091505b5050905080610cba573d6000803e3d6000fd5b6007546040516370a0823160e01b81523060048201526000916001600160a01b0316906370a0823190602401602060405180830381865afa158015610d03573d6000803e3d6000fd5b505050506040513d601f19601f82011682018060405250810190610d27919061419c565b9050610d3383826141e7565b9350600b5484600c54610d4691906141fe565b610d50919061421d565b600c8190556127101015610d9757600c54600090610d70612710826141e7565b610d7a90876141fe565b610d84919061421d565b9050610d8f81612cfc565b50612710600c555b5050505b50506000600b819055600a55565b606060038054610db89061423f565b80601f0160208091040260200160405190810160405280929190818152602001828054610de49061423f565b8015610e315780601f10610e0657610100808354040283529160200191610e31565b820191906000526020600020905b815481529060010190602001808311610e1457829003601f168201915b5050505050905090565b6000610e4833848461307f565b5060015b92915050565b60128054610e5f9061423f565b80601f0160208091040260200160405190810160405280929190818152602001828054610e8b9061423f565b8015610ed85780601f10610ead57610100808354040283529160200191610ed8565b820191906000526020600020905b815481529060010190602001808311610ebb57829003601f168201915b505050505081565b6005546001600160a01b03163314610f0a5760405162461bcd60e51b8152600401610aac906140dd565b6014546040516000916001600160a01b031690610f289084906141b5565b6000604051808303816000865af19150503d8060008114610f65576040519150601f19603f3d011682016040523d82523d6000602084013e610f6a565b606091505b5050905080610f7d573d6000803e3d6000fd5b5050612710600c556000600b819055600a55565b6000610f9e8484846131a3565b6001600160a01b0384166000908152600160209081526040808320338452909152902054828110156110235760405162461bcd60e51b815260206004820152602860248201527f45524332303a207472616e7366657220616d6f756e74206578636565647320616044820152676c6c6f77616e636560c01b6064820152608401610aac565b611030853385840361307f565b506001949350505050565b6000611045611efb565b60405163d06ca61f60e01b81529091506000907310ed43c718714eb63d5aa57b78b54704e256024e9063d06ca61f90611085908690600e9060040161427a565b600060405180830381865afa1580156110a2573d6000803e3d6000fd5b505050506040513d6000823e601f3d908101601f191682016040526110ca91908101906142d6565b9050600081600183516110dd91906141e7565b815181106110ed576110ed61437c565b602002602001015190506009546000148061111257506009546111108285614392565b105b61115e5760405162461bcd60e51b815260206004820152601d60248201527f546865207661756c74207265616368656420746865206d6178206361700000006044820152606401610aac565b6008546040516370a0823160e01b81523060048201526000916001600160a01b0316906370a0823190602401602060405180830381865afa1580156111a7573d6000803e3d6000fd5b505050506040513d601f19601f820116820180604052508101906111cb919061419c565b6008546040516323b872dd60e01b8152336004820152306024820152604481018890529192506001600160a01b0316906323b872dd906064016020604051808303816000875af1158015611223573d6000803e3d6000fd5b505050506040513d601f19601f8201168201806040525081019061124791906143aa565b506008546040516370a0823160e01b81523060048201526000916001600160a01b0316906370a0823190602401602060405180830381865afa158015611291573d6000803e3d6000fd5b505050506040513d601f19601f820116820180604052508101906112b5919061419c565b90506112c182826141e7565b9550819450600a54600014156113db576007546040516370a0823160e01b81523060048201526001600160a01b03909116906370a0823190602401602060405180830381865afa158015611319573d6000803e3d6000fd5b505050506040513d601f19601f8201168201806040525081019061133d919061419c565b60085460075491935061135d916001600160a01b03918216911688613373565b6007546040516370a0823160e01b81523060048201526001600160a01b03909116906370a0823190602401602060405180830381865afa1580156113a5573d6000803e3d6000fd5b505050506040513d601f19601f820116820180604052508101906113c9919061419c565b90506113d582826141e7565b95508194505b600a54600114156113f85782600b546113f49190614392565b600b555b600061140360025490565b61140e57508561142f565b8561141860025490565b61142290896141fe565b61142c919061421d565b90505b6114393382613611565b50505050505050565b336000908152602081905260409020548111156114985760405162461bcd60e51b81526020600482015260146024820152731a5b9d985b1a59081cda185c9948185b5bdd5b9d60621b6044820152606401610aac565b600a546115ab5760006114aa60025490565b6007546040516370a0823160e01b815230600482015284916001600160a01b0316906370a0823190602401602060405180830381865afa1580156114f2573d6000803e3d6000fd5b505050506040513d601f19601f82011682018060405250810190611516919061419c565b61152091906141fe565b61152a919061421d565b905080156115a95760075460405163a9059cbb60e01b81526001600160a01b039091169063a9059cbb906115649033908590600401613df7565b6020604051808303816000875af1158015611583573d6000803e3d6000fd5b505050506040513d601f19601f820116820180604052508101906115a791906143aa565b505b505b600a546001141561180e5760006115c160025490565b6008546040516370a0823160e01b815230600482015284916001600160a01b0316906370a0823190602401602060405180830381865afa158015611609573d6000803e3d6000fd5b505050506040513d601f19601f8201168201806040525081019061162d919061419c565b61163791906141fe565b611641919061421d565b60405163d06ca61f60e01b81529091506000907310ed43c718714eb63d5aa57b78b54704e256024e9063d06ca61f90611681908590600e9060040161427a565b600060405180830381865afa15801561169e573d6000803e3d6000fd5b505050506040513d6000823e601f3d908101601f191682016040526116c691908101906142d6565b905060006116d360025490565b84600b546116e191906141fe565b6116eb919061421d565b905060008183600185516116ff91906141e7565b8151811061170f5761170f61437c565b6020026020010151600c5461172491906141fe565b61172e919061421d565b905061271081111561177b57600081611749612710826141e7565b61175390876141fe565b61175d919061421d565b9050600061176a826136f0565b905061177681876141e7565b955050505b81600b5461178991906141e7565b600b5583156118095760085460405163a9059cbb60e01b81526001600160a01b039091169063a9059cbb906117c49033908890600401613df7565b6020604051808303816000875af11580156117e3573d6000803e3d6000fd5b505050506040513d601f19601f8201168201806040525081019061180791906143aa565b505b505050505b6118183382613b71565b50565b3360008181526001602090815260408083206001600160a01b03871684529091528120549091610e48918590611852908690614392565b61307f565b6001600160a01b03841661187d5760405162461bcd60e51b8152600401610aac90614105565b6001600160a01b0383166118a35760405162461bcd60e51b8152600401610aac90614105565b6001600160a01b0382166118c95760405162461bcd60e51b8152600401610aac90614105565b6005546001600160a01b031633146118f35760405162461bcd60e51b8152600401610aac906140dd565b83600f60006101000a8154816001600160a01b0302191690836001600160a01b0316021790555082601060006101000a8154816001600160a01b0302191690836001600160a01b0316021790555081601160006101000a8154816001600160a01b0302191690836001600160a01b0316021790555087600d60006101000a81548161ffff021916908361ffff16021790555086600d60026101000a81548161ffff021916908361ffff16021790555085600d60046101000a81548161ffff021916908361ffff16021790555084600d60066101000a81548161ffff021916908361ffff160217905550806009819055507fa67074d9fedec020dc10bf99d89e6807b835ff80f7a78a010d7b1233aa6db31b600f60009054906101000a90046001600160a01b0316601060009054906101000a90046001600160a01b0316601160009054906101000a90046001600160a01b0316600d60009054906101000a900461ffff16600d60029054906101000a900461ffff16600d60049054906101000a900461ffff16600d60069054906101000a900461ffff16600954604051611aec9897969594939291906001600160a01b039889168152968816602088015294909616604086015261ffff92831660608601529082166080850152811660a08401529290921660c082015260e08101919091526101000190565b60405180910390a15050505050505050565b6001600160a01b031660009081526006602052604090205460ff1690565b6005546001600160a01b03163314611b465760405162461bcd60e51b8152600401610aac906140dd565b6001600160a01b038216611b6c5760405162461bcd60e51b8152600401610aac90614105565b60075460405163095ea7b360e01b81526001600160a01b039091169063095ea7b390611b9e9085908590600401613df7565b6020604051808303816000875af1158015611bbd573d6000803e3d6000fd5b505050506040513d601f19601f82011682018060405250810190611be191906143aa565b5060085460405163095ea7b360e01b81526001600160a01b039091169063095ea7b390611c149085908590600401613df7565b6020604051808303816000875af1158015611c33573d6000803e3d6000fd5b505050506040513d601f19601f82011682018060405250810190611c5791906143aa565b505050565b611c6533611afe565b611c815760405162461bcd60e51b8152600401610aac9061413c565b600a54600114611ca35760405162461bcd60e51b8152600401610aac90614165565b6008546040516370a0823160e01b81523060048201526000916001600160a01b0316906370a0823190602401602060405180830381865afa158015611cec573d6000803e3d6000fd5b505050506040513d601f19601f82011682018060405250810190611d10919061419c565b90508015611ea057600854611d2e906001600160a01b031682612b1d565b6007546040516370a0823160e01b81523060048201529192506000916001600160a01b03909116906370a0823190602401602060405180830381865afa158015611d7c573d6000803e3d6000fd5b505050506040513d601f19601f82011682018060405250810190611da0919061419c565b600854600754919250611dc0916001600160a01b03918216911684613373565b6007546040516370a0823160e01b81523060048201526000916001600160a01b0316906370a0823190602401602060405180830381865afa158015611e09573d6000803e3d6000fd5b505050506040513d601f19601f82011682018060405250810190611e2d919061419c565b9050611e3982826141e7565b9250600b5483600c54611e4c91906141fe565b611e56919061421d565b600c8190556127101015611e9d57600c54600090611e76612710826141e7565b611e8090866141fe565b611e8a919061421d565b9050611e9581612cfc565b50612710600c555b50505b506000600b819055600a55565b6005546001600160a01b03163314611ed75760405162461bcd60e51b8152600401610aac906140dd565b6001600160a01b03166000908152600660205260409020805460ff19166001179055565b6000611f05613cbf565b6007546040516370a0823160e01b81523060048201526001600160a01b03909116906370a0823190602401602060405180830381865afa158015611f4d573d6000803e3d6000fd5b505050506040513d601f19601f82011682018060405250810190611f71919061419c565b611f7b9190614392565b905090565b6014546001600160a01b0316611fa85760405162461bcd60e51b8152600401610aac90614105565b611fb133611afe565b611fcd5760405162461bcd60e51b8152600401610aac9061413c565b600a54600114611fef5760405162461bcd60e51b8152600401610aac90614165565b6008546040516370a0823160e01b81523060048201526000916001600160a01b0316906370a0823190602401602060405180830381865afa158015612038573d6000803e3d6000fd5b505050506040513d601f19601f8201168201806040525081019061205c919061419c565b90508015610d9b5760085461207a906001600160a01b031682612b1d565b6007546040516370a0823160e01b81523060048201529192506000916001600160a01b03909116906370a0823190602401602060405180830381865afa1580156120c8573d6000803e3d6000fd5b505050506040513d601f19601f820116820180604052508101906120ec919061419c565b6014546040519192506000916001600160a01b0390911690610c659086906141b5565b6014546001600160a01b03166121375760405162461bcd60e51b8152600401610aac90614105565b61214033611afe565b61215c5760405162461bcd60e51b8152600401610aac9061413c565b600a541561217c5760405162461bcd60e51b8152600401610aac906143cc565b6007546040516370a0823160e01b81523060048201526000916001600160a01b0316906370a0823190602401602060405180830381865afa1580156121c5573d6000803e3d6000fd5b505050506040513d601f19601f820116820180604052508101906121e9919061419c565b90506000811161220b5760405162461bcd60e51b8152600401610aac90614411565b600754612221906001600160a01b031682612b1d565b600b8190556014546040519192506000916001600160a01b03909116906122499085906141b5565b6000604051808303816000865af19150503d8060008114612286576040519150601f19603f3d011682016040523d82523d6000602084013e61228b565b606091505b505090508061229e573d6000803e3d6000fd5b50506001600a5550565b6005546001600160a01b031633146122d25760405162461bcd60e51b8152600401610aac906140dd565b6013546040516000916001600160a01b031690610f289084906141b5565b6005546001600160a01b0316331461231a5760405162461bcd60e51b8152600401610aac906140dd565b6008546040516370a0823160e01b81523060048201526000916001600160a01b0316906370a0823190602401602060405180830381865afa158015612363573d6000803e3d6000fd5b505050506040513d601f19601f82011682018060405250810190612387919061419c565b9050620f42408111156123b1576008546007546123b1916001600160a01b03908116911683613373565b50612710600c556000600b819055600a55565b606060048054610db89061423f565b3360009081526001602090815260408083206001600160a01b0386168452909152812054828110156124555760405162461bcd60e51b815260206004820152602560248201527f45524332303a2064656372656173656420616c6c6f77616e63652062656c6f77604482015264207a65726f60d81b6064820152608401610aac565b612462338585840361307f565b5060019392505050565b61247533611afe565b6124915760405162461bcd60e51b8152600401610aac9061413c565b600a54156124b15760405162461bcd60e51b8152600401610aac906143cc565b6007546040516370a0823160e01b81523060048201526000916001600160a01b0316906370a0823190602401602060405180830381865afa1580156124fa573d6000803e3d6000fd5b505050506040513d601f19601f8201168201806040525081019061251e919061419c565b9050600081116125405760405162461bcd60e51b8152600401610aac90614411565b600754612556906001600160a01b031682612b1d565b600b81905560075460085491925061257b916001600160a01b03918216911683613373565b506001600a55565b6000610e483384846131a3565b6005546001600160a01b031633146125ba5760405162461bcd60e51b8152600401610aac906140dd565b6001600160a01b0382166125e05760405162461bcd60e51b8152600401610aac90614105565b6040516001600160a01b0383169082156108fc029083906000818181858888f19350505050158015611c57573d6000803e3d6000fd5b6001600160a01b03811661263c5760405162461bcd60e51b8152600401610aac90614105565b6005546001600160a01b031633146126665760405162461bcd60e51b8152600401610aac906140dd565b6001600160a01b03166000818152600660205260409020805460ff19166001179055600580546001600160a01b0319169091179055565b60006126a7611efb565b9050600954600014806126c457506009546126c28383614392565b105b6127105760405162461bcd60e51b815260206004820152601d60248201527f546865207661756c74207265616368656420746865206d6178206361700000006044820152606401610aac565b6007546040516370a0823160e01b81523060048201526000916001600160a01b0316906370a0823190602401602060405180830381865afa158015612759573d6000803e3d6000fd5b505050506040513d601f19601f8201168201806040525081019061277d919061419c565b6007546040516323b872dd60e01b8152336004820152306024820152604481018690529192506001600160a01b0316906323b872dd906064016020604051808303816000875af11580156127d5573d6000803e3d6000fd5b505050506040513d601f19601f820116820180604052508101906127f991906143aa565b506007546040516370a0823160e01b81523060048201526000916001600160a01b0316906370a0823190602401602060405180830381865afa158015612843573d6000803e3d6000fd5b505050506040513d601f19601f82011682018060405250810190612867919061419c565b905061287382826141e7565b9350600a546001141561299b5783600b5461288e9190614392565b600b556008546040516370a0823160e01b81523060048201526001600160a01b03909116906370a0823190602401602060405180830381865afa1580156128d9573d6000803e3d6000fd5b505050506040513d601f19601f820116820180604052508101906128fd919061419c565b60075460085491935061291d916001600160a01b03918216911686613373565b6008546040516370a0823160e01b81523060048201526001600160a01b03909116906370a0823190602401602060405180830381865afa158015612965573d6000803e3d6000fd5b505050506040513d601f19601f82011682018060405250810190612989919061419c565b905061299582826141e7565b93508192505b60006129a660025490565b6129b15750836129d2565b836129bb60025490565b6129c590876141fe565b6129cf919061421d565b90505b6129dc3382613611565b5050505050565b6013546001600160a01b0316612a0b5760405162461bcd60e51b8152600401610aac90614105565b612a1433611afe565b612a305760405162461bcd60e51b8152600401610aac9061413c565b600a5415612a505760405162461bcd60e51b8152600401610aac906143cc565b6007546040516370a0823160e01b81523060048201526000916001600160a01b0316906370a0823190602401602060405180830381865afa158015612a99573d6000803e3d6000fd5b505050506040513d601f19601f82011682018060405250810190612abd919061419c565b905060008111612adf5760405162461bcd60e51b8152600401610aac90614411565b600754612af5906001600160a01b031682612b1d565b600b8190556013546040519192506000916001600160a01b03909116906122499085906141b5565b600081612b2c57506000610e4c565b600d5460009061271090612b4a9062010000900461ffff16856141fe565b612b54919061421d565b6040516370a0823160e01b81523060048201529091506000906000805160206144ba833981519152906370a0823190602401602060405180830381865afa158015612ba3573d6000803e3d6000fd5b505050506040513d601f19601f82011682018060405250810190612bc7919061419c565b9050612be2856000805160206144ba83398151915284613373565b6040516370a0823160e01b81523060048201526000906000805160206144ba833981519152906370a0823190602401602060405180830381865afa158015612c2e573d6000803e3d6000fd5b505050506040513d601f19601f82011682018060405250810190612c52919061419c565b90506000612c6083836141e7565b600f5460405163a9059cbb60e01b81529192506000805160206144ba8339815191529163a9059cbb91612ca3916001600160a01b03909116908590600401613df7565b6020604051808303816000875af1158015612cc2573d6000803e3d6000fd5b505050506040513d601f19601f82011682018060405250810190612ce691906143aa565b50612cf184876141e7565b979650505050505050565b80612d045750565b600d5460009061271090612d2490640100000000900461ffff16846141fe565b612d2e919061421d565b600d5490915060009061271090612d5090600160301b900461ffff16856141fe565b612d5a919061421d565b600d5490915060009061271090612d759061ffff16866141fe565b612d7f919061421d565b9050600083612d8e8385614392565b612d989190614392565b6040516370a0823160e01b81523060048201529091506000906000805160206144ba833981519152906370a0823190602401602060405180830381865afa158015612de7573d6000803e3d6000fd5b505050506040513d601f19601f82011682018060405250810190612e0b919061419c565b600754909150612e33906001600160a01b03166000805160206144ba83398151915284613373565b6040516370a0823160e01b81523060048201526000906000805160206144ba833981519152906370a0823190602401602060405180830381865afa158015612e7f573d6000803e3d6000fd5b505050506040513d601f19601f82011682018060405250810190612ea3919061419c565b90506000612eb183836141e7565b905083612ebe87836141fe565b612ec8919061421d565b955083612ed586836141fe565b612edf919061421d565b945084612eec87836141e7565b612ef691906141e7565b60405163a9059cbb60e01b81529097506000805160206144ba8339815191529063a9059cbb90612f2d906000908b90600401613df7565b6020604051808303816000875af1158015612f4c573d6000803e3d6000fd5b505050506040513d601f19601f82011682018060405250810190612f7091906143aa565b5060105460405163a9059cbb60e01b81526000805160206144ba8339815191529163a9059cbb91612faf916001600160a01b0316908a90600401613df7565b6020604051808303816000875af1158015612fce573d6000803e3d6000fd5b505050506040513d601f19601f82011682018060405250810190612ff291906143aa565b5060115460405163a9059cbb60e01b81526000805160206144ba8339815191529163a9059cbb91613031916001600160a01b0316908990600401613df7565b6020604051808303816000875af1158015613050573d6000803e3d6000fd5b505050506040513d601f19601f8201168201806040525081019061307491906143aa565b505050505050505050565b6001600160a01b0383166130e15760405162461bcd60e51b8152602060048201526024808201527f45524332303a20617070726f76652066726f6d20746865207a65726f206164646044820152637265737360e01b6064820152608401610aac565b6001600160a01b0382166131425760405162461bcd60e51b815260206004820152602260248201527f45524332303a20617070726f766520746f20746865207a65726f206164647265604482015261737360f01b6064820152608401610aac565b6001600160a01b0383811660008181526001602090815260408083209487168084529482529182902085905590518481527f8c5be1e5ebec7d5bd14f71427d1e84f3dd0314c0f7b2291e5b200ac8c7c3b925910160405180910390a3505050565b6001600160a01b0383166132075760405162461bcd60e51b815260206004820152602560248201527f45524332303a207472616e736665722066726f6d20746865207a65726f206164604482015264647265737360d81b6064820152608401610aac565b6001600160a01b0382166132695760405162461bcd60e51b815260206004820152602360248201527f45524332303a207472616e7366657220746f20746865207a65726f206164647260448201526265737360e81b6064820152608401610aac565b6001600160a01b038316600090815260208190526040902054818110156132e15760405162461bcd60e51b815260206004820152602660248201527f45524332303a207472616e7366657220616d6f756e7420657863656564732062604482015265616c616e636560d01b6064820152608401610aac565b6001600160a01b03808516600090815260208190526040808220858503905591851681529081208054849290613318908490614392565b92505081905550826001600160a01b0316846001600160a01b03167fddf252ad1be2c89b69c2b068fc378daa952ba7f163c4a11628f55a4df523b3ef8460405161336491815260200190565b60405180910390a35b50505050565b6001600160a01b03821661338657600080fd5b60405163095ea7b360e01b81526001600160a01b0384169063095ea7b3906133c9907310ed43c718714eb63d5aa57b78b54704e256024e90600090600401613df7565b6020604051808303816000875af11580156133e8573d6000803e3d6000fd5b505050506040513d601f19601f8201168201806040525081019061340c91906143aa565b5060405163095ea7b360e01b81526001600160a01b0384169063095ea7b39061344f907310ed43c718714eb63d5aa57b78b54704e256024e908590600401613df7565b6020604051808303816000875af115801561346e573d6000803e3d6000fd5b505050506040513d601f19601f8201168201806040525081019061349291906143aa565b50604080516002808252606080830184529260208301908036833701905050905083816000815181106134c7576134c761437c565b60200260200101906001600160a01b031690816001600160a01b03168152505082816001815181106134fb576134fb61437c565b6001600160a01b039092166020928302919091019091015260007310ed43c718714eb63d5aa57b78b54704e256024e6338ed17398483853061353e42603c614392565b6040518663ffffffff1660e01b815260040161355e959493929190614448565b6000604051808303816000875af115801561357d573d6000803e3d6000fd5b505050506040513d6000823e601f3d908101601f191682016040526135a591908101906142d6565b90506000816000815181106135bc576135bc61437c565b6020026020010151116129dc5760405162461bcd60e51b815260206004820181905260248201527f5468657265207761732070726f626c656d20696e2070616e63616b65737761706044820152606401610aac565b6001600160a01b0382166136675760405162461bcd60e51b815260206004820152601f60248201527f45524332303a206d696e7420746f20746865207a65726f2061646472657373006044820152606401610aac565b80600260008282546136799190614392565b90915550506001600160a01b038216600090815260208190526040812080548392906136a6908490614392565b90915550506040518181526001600160a01b038316906000907fddf252ad1be2c89b69c2b068fc378daa952ba7f163c4a11628f55a4df523b3ef9060200160405180910390a35050565b6000816136ff57506000919050565b600d546000906127109061371f90640100000000900461ffff16856141fe565b613729919061421d565b600d549091506000906127109061374b90600160301b900461ffff16866141fe565b613755919061421d565b600d54909150600090612710906137709061ffff16876141fe565b61377a919061421d565b90506000836137898385614392565b6137939190614392565b6040516370a0823160e01b81523060048201529091506000906000805160206144ba833981519152906370a0823190602401602060405180830381865afa1580156137e2573d6000803e3d6000fd5b505050506040513d601f19601f82011682018060405250810190613806919061419c565b6008546040516370a0823160e01b81523060048201529192506000916001600160a01b03909116906370a0823190602401602060405180830381865afa158015613854573d6000803e3d6000fd5b505050506040513d601f19601f82011682018060405250810190613878919061419c565b6008549091506138a0906001600160a01b03166000805160206144ba83398151915285613373565b6040516370a0823160e01b81523060048201526000906000805160206144ba833981519152906370a0823190602401602060405180830381865afa1580156138ec573d6000803e3d6000fd5b505050506040513d601f19601f82011682018060405250810190613910919061419c565b6008546040516370a0823160e01b81523060048201529192506000916001600160a01b03909116906370a0823190602401602060405180830381865afa15801561395e573d6000803e3d6000fd5b505050506040513d601f19601f82011682018060405250810190613982919061419c565b9050600061399085846141e7565b9050600061399e83866141e7565b9050866139ab8a846141fe565b6139b5919061421d565b9850866139c289846141fe565b6139cc919061421d565b9750876139d98a846141e7565b6139e391906141e7565b60405163a9059cbb60e01b8152909a506000805160206144ba8339815191529063a9059cbb90613a1a906000908e90600401613df7565b6020604051808303816000875af1158015613a39573d6000803e3d6000fd5b505050506040513d601f19601f82011682018060405250810190613a5d91906143aa565b5060105460405163a9059cbb60e01b81526000805160206144ba8339815191529163a9059cbb91613a9c916001600160a01b0316908d90600401613df7565b6020604051808303816000875af1158015613abb573d6000803e3d6000fd5b505050506040513d601f19601f82011682018060405250810190613adf91906143aa565b5060115460405163a9059cbb60e01b81526000805160206144ba8339815191529163a9059cbb91613b1e916001600160a01b0316908c90600401613df7565b6020604051808303816000875af1158015613b3d573d6000803e3d6000fd5b505050506040513d601f19601f82011682018060405250810190613b6191906143aa565b509b9a5050505050505050505050565b6001600160a01b038216613bd15760405162461bcd60e51b815260206004820152602160248201527f45524332303a206275726e2066726f6d20746865207a65726f206164647265736044820152607360f81b6064820152608401610aac565b6001600160a01b03821660009081526020819052604090205481811015613c455760405162461bcd60e51b815260206004820152602260248201527f45524332303a206275726e20616d6f756e7420657863656564732062616c616e604482015261636560f01b6064820152608401610aac565b6001600160a01b0383166000908152602081905260408120838303905560028054849290613c749084906141e7565b90915550506040518281526000906001600160a01b038516907fddf252ad1be2c89b69c2b068fc378daa952ba7f163c4a11628f55a4df523b3ef9060200160405180910390a3505050565b6008546040516370a0823160e01b815230600482015260009182916001600160a01b03909116906370a0823190602401602060405180830381865afa158015613d0c573d6000803e3d6000fd5b505050506040513d601f19601f82011682018060405250810190613d30919061419c565b9050620f4240811015613d4557600091505090565b60405163d06ca61f60e01b81526000907310ed43c718714eb63d5aa57b78b54704e256024e9063d06ca61f90613d82908590600e9060040161427a565b600060405180830381865afa158015613d9f573d6000803e3d6000fd5b505050506040513d6000823e601f3d908101601f19168201604052613dc791908101906142d6565b90508060018251613dd891906141e7565b81518110613de857613de861437c565b60200260200101519250505090565b6001600160a01b03929092168252602082015260400190565b80356001600160a01b0381168114613e2757600080fd5b919050565b600060208284031215613e3e57600080fd5b613e4782613e10565b9392505050565b634e487b7160e01b600052604160045260246000fd5b604051601f8201601f1916810167ffffffffffffffff81118282101715613e8d57613e8d613e4e565b604052919050565b60006020808385031215613ea857600080fd5b823567ffffffffffffffff80821115613ec057600080fd5b818501915085601f830112613ed457600080fd5b813581811115613ee657613ee6613e4e565b613ef8601f8201601f19168501613e64565b91508082528684828501011115613f0e57600080fd5b8084840185840137600090820190930192909252509392505050565b60005b83811015613f45578181015183820152602001613f2d565b8381111561336d5750506000910152565b6020815260008251806020840152613f75816040850160208701613f2a565b601f01601f19169190910160400192915050565b60008060408385031215613f9c57600080fd5b613fa583613e10565b946020939093013593505050565b600080600060608486031215613fc857600080fd5b613fd184613e10565b9250613fdf60208501613e10565b9150604084013590509250925092565b60006020828403121561400157600080fd5b5035919050565b803561ffff81168114613e2757600080fd5b600080600080600080600080610100898b03121561403757600080fd5b61404089614008565b975061404e60208a01614008565b965061405c60408a01614008565b955061406a60608a01614008565b945061407860808a01613e10565b935061408660a08a01613e10565b925061409460c08a01613e10565b915060e089013590509295985092959890939650565b600080604083850312156140bd57600080fd5b6140c683613e10565b91506140d460208401613e10565b90509250929050565b6020808252600e908201526d139bdd081cdd1c985d1959da5cdd60921b604082015260600190565b6020808252601c908201527f506c656173652070726f766964652076616c6964206164647265737300000000604082015260600190565b6020808252600f908201526e139bdd081dda1a5d195b1a5cdd1959608a1b604082015260600190565b6020808252601f908201527f546865207661756c7420697320696e20636c6f73656420706f736974696f6e00604082015260600190565b6000602082840312156141ae57600080fd5b5051919050565b600082516141c7818460208701613f2a565b9190910192915050565b634e487b7160e01b600052601160045260246000fd5b6000828210156141f9576141f96141d1565b500390565b6000816000190483118215151615614218576142186141d1565b500290565b60008261423a57634e487b7160e01b600052601260045260246000fd5b500490565b600181811c9082168061425357607f821691505b6020821081141561427457634e487b7160e01b600052602260045260246000fd5b50919050565b60006040820184835260206040818501528185548084526060860191508660005282600020935060005b818110156142c95784546001600160a01b0316835260019485019492840192016142a4565b5090979650505050505050565b600060208083850312156142e957600080fd5b825167ffffffffffffffff8082111561430157600080fd5b818501915085601f83011261431557600080fd5b81518181111561432757614327613e4e565b8060051b9150614338848301613e64565b818152918301840191848101908884111561435257600080fd5b938501935b8385101561437057845182529385019390850190614357565b98975050505050505050565b634e487b7160e01b600052603260045260246000fd5b600082198211156143a5576143a56141d1565b500190565b6000602082840312156143bc57600080fd5b81518015158114613e4757600080fd5b60208082526025908201527f546865207661756c7420697320616c726561647920696e206f70656e20706f7360408201526434ba34b7b760d91b606082015260800190565b6020808252601a908201527f4e6f20656e6f7567682062616c616e636520746f207472616465000000000000604082015260600190565b600060a082018783526020878185015260a0604085015281875180845260c086019150828901935060005b818110156144985784516001600160a01b031683529383019391830191600101614473565b50506001600160a01b0396909616606085015250505060800152939250505056fe000000000000000000000000bbeb90cfb6fafa1f69aa130b7341089abeef5811a26469706673582212207ea05107580a284f8c9cdfe4201f2e5e091e68d65ee8ed17e18b9be93854227264736f6c634300080a0033506c656173652070726f766964652076616c6964206164647265737300000000",
  "devdoc": {
    "kind": "dev",
    "methods": {
      "allowance(address,address)": {
        "details": "See {IERC20-allowance}."
      },
      "approve(address,uint256)": {
        "details": "See {IERC20-approve}. Requirements: - `spender` cannot be the zero address."
      },
      "balanceOf(address)": {
        "details": "See {IERC20-balanceOf}."
      },
      "decimals()": {
        "details": "Returns the number of decimals used to get its user representation. For example, if `decimals` equals `2`, a balance of `505` tokens should be displayed to a user as `5.05` (`505 / 10 ** 2`). Tokens usually opt for a value of 18, imitating the relationship between Ether and Wei. This is the value {ERC20} uses, unless this function is overridden; NOTE: This information is only used for _display_ purposes: it in no way affects any of the arithmetic of the contract, including {IERC20-balanceOf} and {IERC20-transfer}."
      },
      "decreaseAllowance(address,uint256)": {
        "details": "Atomically decreases the allowance granted to `spender` by the caller. This is an alternative to {approve} that can be used as a mitigation for problems described in {IERC20-approve}. Emits an {Approval} event indicating the updated allowance. Requirements: - `spender` cannot be the zero address. - `spender` must have allowance for the caller of at least `subtractedValue`."
      },
      "increaseAllowance(address,uint256)": {
        "details": "Atomically increases the allowance granted to `spender` by the caller. This is an alternative to {approve} that can be used as a mitigation for problems described in {IERC20-approve}. Emits an {Approval} event indicating the updated allowance. Requirements: - `spender` cannot be the zero address."
      },
      "name()": {
        "details": "Returns the name of the token."
      },
      "symbol()": {
        "details": "Returns the symbol of the token, usually a shorter version of the name."
      },
      "totalSupply()": {
        "details": "See {IERC20-totalSupply}."
      },
      "transfer(address,uint256)": {
        "details": "See {IERC20-transfer}. Requirements: - `recipient` cannot be the zero address. - the caller must have a balance of at least `amount`."
      },
      "transferFrom(address,address,uint256)": {
        "details": "See {IERC20-transferFrom}. Emits an {Approval} event indicating the updated allowance. This is not required by the EIP. See the note at the beginning of {ERC20}. Requirements: - `sender` and `recipient` cannot be the zero address. - `sender` must have a balance of at least `amount`. - the caller must have allowance for ``sender``'s tokens of at least `amount`."
      }
    },
    "version": 1
  },
  "userdoc": {
    "kind": "user",
    "methods": {},
    "version": 1
  },
  "storageLayout": {
    "storage": [
      {
        "astId": 119,
        "contract": "contracts/vault.sol:Vault",
        "label": "_balances",
        "offset": 0,
        "slot": "0",
        "type": "t_mapping(t_address,t_uint256)"
      },
      {
        "astId": 125,
        "contract": "contracts/vault.sol:Vault",
        "label": "_allowances",
        "offset": 0,
        "slot": "1",
        "type": "t_mapping(t_address,t_mapping(t_address,t_uint256))"
      },
      {
        "astId": 127,
        "contract": "contracts/vault.sol:Vault",
        "label": "_totalSupply",
        "offset": 0,
        "slot": "2",
        "type": "t_uint256"
      },
      {
        "astId": 129,
        "contract": "contracts/vault.sol:Vault",
        "label": "_name",
        "offset": 0,
        "slot": "3",
        "type": "t_string_storage"
      },
      {
        "astId": 131,
        "contract": "contracts/vault.sol:Vault",
        "label": "_symbol",
        "offset": 0,
        "slot": "4",
        "type": "t_string_storage"
      },
      {
        "astId": 2536,
        "contract": "contracts/vault.sol:Vault",
        "label": "strategist",
        "offset": 0,
        "slot": "5",
        "type": "t_address"
      },
      {
        "astId": 2540,
        "contract": "contracts/vault.sol:Vault",
        "label": "whiteList",
        "offset": 0,
        "slot": "6",
        "type": "t_mapping(t_address,t_bool)"
      },
      {
        "astId": 2542,
        "contract": "contracts/vault.sol:Vault",
        "label": "quoteToken",
        "offset": 0,
        "slot": "7",
        "type": "t_address"
      },
      {
        "astId": 2544,
        "contract": "contracts/vault.sol:Vault",
        "label": "baseToken",
        "offset": 0,
        "slot": "8",
        "type": "t_address"
      },
      {
        "astId": 2547,
        "contract": "contracts/vault.sol:Vault",
        "label": "maxCap",
        "offset": 0,
        "slot": "9",
        "type": "t_uint256"
      },
      {
        "astId": 2550,
        "contract": "contracts/vault.sol:Vault",
        "label": "position",
        "offset": 0,
        "slot": "10",
        "type": "t_uint256"
      },
      {
        "astId": 2553,
        "contract": "contracts/vault.sol:Vault",
        "label": "soldAmount",
        "offset": 0,
        "slot": "11",
        "type": "t_uint256"
      },
      {
        "astId": 2556,
        "contract": "contracts/vault.sol:Vault",
        "label": "profit",
        "offset": 0,
        "slot": "12",
        "type": "t_uint256"
      },
      {
        "astId": 2568,
        "contract": "contracts/vault.sol:Vault",
        "label": "percentDev",
        "offset": 0,
        "slot": "13",
        "type": "t_uint16"
      },
      {
        "astId": 2571,
        "contract": "contracts/vault.sol:Vault",
        "label": "percentUpbotsFee",
        "offset": 2,
        "slot": "13",
        "type": "t_uint16"
      },
      {
        "astId": 2574,
        "contract": "contracts/vault.sol:Vault",
        "label": "percentBurn",
        "offset": 4,
        "slot": "13",
        "type": "t_uint16"
      },
      {
        "astId": 2577,
        "contract": "contracts/vault.sol:Vault",
        "label": "percentStakers",
        "offset": 6,
        "slot": "13",
        "type": "t_uint16"
      },
      {
        "astId": 2583,
        "contract": "contracts/vault.sol:Vault",
        "label": "pathBackward",
        "offset": 0,
        "slot": "14",
        "type": "t_array(t_address)dyn_storage"
      },
      {
        "astId": 2585,
        "contract": "contracts/vault.sol:Vault",
        "label": "company",
        "offset": 0,
        "slot": "15",
        "type": "t_address"
      },
      {
        "astId": 2587,
        "contract": "contracts/vault.sol:Vault",
        "label": "stakers",
        "offset": 0,
        "slot": "16",
        "type": "t_address"
      },
      {
        "astId": 2589,
        "contract": "contracts/vault.sol:Vault",
        "label": "algoDev",
        "offset": 0,
        "slot": "17",
        "type": "t_address"
      },
      {
        "astId": 2596,
        "contract": "contracts/vault.sol:Vault",
        "label": "vaultName",
        "offset": 0,
        "slot": "18",
        "type": "t_string_storage"
      },
      {
        "astId": 2598,
        "contract": "contracts/vault.sol:Vault",
        "label": "paraswapCallAddr",
        "offset": 0,
        "slot": "19",
        "type": "t_address"
      },
      {
        "astId": 2600,
        "contract": "contracts/vault.sol:Vault",
        "label": "oneinchCallAddr",
        "offset": 0,
        "slot": "20",
        "type": "t_address"
      }
    ],
    "types": {
      "t_address": {
        "encoding": "inplace",
        "label": "address",
        "numberOfBytes": "20"
      },
      "t_array(t_address)dyn_storage": {
        "base": "t_address",
        "encoding": "dynamic_array",
        "label": "address[]",
        "numberOfBytes": "32"
      },
      "t_bool": {
        "encoding": "inplace",
        "label": "bool",
        "numberOfBytes": "1"
      },
      "t_mapping(t_address,t_bool)": {
        "encoding": "mapping",
        "key": "t_address",
        "label": "mapping(address => bool)",
        "numberOfBytes": "32",
        "value": "t_bool"
      },
      "t_mapping(t_address,t_mapping(t_address,t_uint256))": {
        "encoding": "mapping",
        "key": "t_address",
        "label": "mapping(address => mapping(address => uint256))",
        "numberOfBytes": "32",
        "value": "t_mapping(t_address,t_uint256)"
      },
      "t_mapping(t_address,t_uint256)": {
        "encoding": "mapping",
        "key": "t_address",
        "label": "mapping(address => uint256)",
        "numberOfBytes": "32",
        "value": "t_uint256"
      },
      "t_string_storage": {
        "encoding": "bytes",
        "label": "string",
        "numberOfBytes": "32"
      },
      "t_uint16": {
        "encoding": "inplace",
        "label": "uint16",
        "numberOfBytes": "2"
      },
      "t_uint256": {
        "encoding": "inplace",
        "label": "uint256",
        "numberOfBytes": "32"
      }
    }
  }
}