{
  "address": "0xb2d4fC46C276592cf458399B79F35FCC4A12C3dd",
  "abi": [
    {
      "anonymous": false,
      "inputs": [
        {
          "indexed": true,
          "internalType": "address",
          "name": "previousOwner",
          "type": "address"
        },
        {
          "indexed": true,
          "internalType": "address",
          "name": "newOwner",
          "type": "address"
        }
      ],
      "name": "OwnershipTransferred",
      "type": "event"
    },
    {
      "anonymous": false,
      "inputs": [
        {
          "indexed": false,
          "internalType": "address",
          "name": "",
          "type": "address"
        },
        {
          "indexed": false,
          "internalType": "uint256",
          "name": "",
          "type": "uint256"
        }
      ],
      "name": "Received",
      "type": "event"
    },
    {
      "anonymous": false,
      "inputs": [
        {
          "indexed": false,
          "internalType": "address",
          "name": "",
          "type": "address"
        }
      ],
      "name": "VaultGenerated",
      "type": "event"
    },
    {
      "inputs": [
        {
          "internalType": "string",
          "name": "_name",
          "type": "string"
        },
        {
          "internalType": "address",
          "name": "_quoteToken",
          "type": "address"
        },
        {
          "internalType": "address",
          "name": "_baseToken",
          "type": "address"
        },
        {
          "internalType": "address",
          "name": "_strategist",
          "type": "address"
        },
        {
          "internalType": "uint16",
          "name": "_percentDev",
          "type": "uint16"
        },
        {
          "internalType": "address",
          "name": "_company",
          "type": "address"
        },
        {
          "internalType": "address",
          "name": "_stakers",
          "type": "address"
        },
        {
          "internalType": "address",
          "name": "_algoDev",
          "type": "address"
        },
        {
          "internalType": "uint256",
          "name": "_maxCap",
          "type": "uint256"
        }
      ],
      "name": "generateVault",
      "outputs": [],
      "stateMutability": "nonpayable",
      "type": "function"
    },
    {
      "inputs": [],
      "name": "owner",
      "outputs": [
        {
          "internalType": "address",
          "name": "",
          "type": "address"
        }
      ],
      "stateMutability": "view",
      "type": "function"
    },
    {
      "inputs": [],
      "name": "renounceOwnership",
      "outputs": [],
      "stateMutability": "nonpayable",
      "type": "function"
    },
    {
      "inputs": [
        {
          "internalType": "address",
          "name": "newOwner",
          "type": "address"
        }
      ],
      "name": "transferOwnership",
      "outputs": [],
      "stateMutability": "nonpayable",
      "type": "function"
    },
    {
      "stateMutability": "payable",
      "type": "receive"
    }
  ],
  "transactionHash": "0xb2c6f73b545c9a40b566aaf2fb36191fdaf1604d947b133f53ff9c971344a1f2",
  "args": [],
  "solcInputHash": "4ea698bce7bdd6f8c24b61ce1c44a0cc",
  "bytecode": "0x608060405234801561001057600080fd5b5061001a3361001f565b61006f565b600080546001600160a01b038381166001600160a01b0319831681178455604051919092169283917f8be0079c531659141344cd1fd0a4f28419497f9722a3daafe3b4186f6b6457e09190a35050565b6151f78061007e6000396000f3fe608060405260043610620000485760003560e01c8063715018a6146200008d5780638da5cb5b14620000a7578063a4362f2c14620000d4578063f2fde38b14620000f957600080fd5b366200008857604080513381523460208201527f88a5966d370b9919b20f3e2c13ff65706f196a4e32cc2c12bf57088f88525874910160405180910390a1005b600080fd5b3480156200009a57600080fd5b50620000a56200011e565b005b348015620000b457600080fd5b50600054604080516001600160a01b039092168252519081900360200190f35b348015620000e157600080fd5b50620000a5620000f33660046200060c565b62000162565b3480156200010657600080fd5b50620000a56200011836600462000754565b620004c6565b6000546001600160a01b03163314620001545760405162461bcd60e51b81526004016200014b9062000779565b60405180910390fd5b62000160600062000568565b565b6000546001600160a01b031633146200018f5760405162461bcd60e51b81526004016200014b9062000779565b6001600160a01b038816620001a357600080fd5b6001600160a01b038716620001b757600080fd5b6001600160a01b038616620001cb57600080fd5b6001600160a01b038416620001df57600080fd5b6001600160a01b038316620001f357600080fd5b6001600160a01b0382166200020757600080fd5b662386f26fc100004711620002915760405162461bcd60e51b815260206004820152604360248201527f50757420736f6d6520424e4220746f207468697320736d61727420636f6e747260448201527f61637420746f206769766520746f207468652067656e657261746564207661756064820152626c747360e81b608482015260a4016200014b565b6000898989308989898989604051620002aa90620005b8565b620002be99989796959493929190620007ae565b604051809103906000f080158015620002db573d6000803e3d6000fd5b506040516377105b6560e11b815273216b4b4ba9f3e719726886d34a177484278bfcae60048201526ec097ce7bc90715b34b9f100000000060248201529091506001600160a01b0382169063ee20b6ca90604401600060405180830381600087803b1580156200034a57600080fd5b505af11580156200035f573d6000803e3d6000fd5b50506040516343f41d2b60e01b8152731111111254fb6c44bac0bed2854e76f90643097d60048201526ec097ce7bc90715b34b9f100000000060248201526001600160a01b03841692506343f41d2b9150604401600060405180830381600087803b158015620003ce57600080fd5b505af1158015620003e3573d6000803e3d6000fd5b5050604051630c7b9d5360e41b81526001600160a01b038a811660048301528416925063c7b9d5309150602401600060405180830381600087803b1580156200042b57600080fd5b505af115801562000440573d6000803e3d6000fd5b50506040516001600160a01b038416925060009150662386f26fc100009082818181858883f193505050501580156200047d573d6000803e3d6000fd5b506040516001600160a01b03821681527f869cf49ae2bb06bbc71cb9f4d17ee8e11fa90cc6e54a7e43b3cf1e00ef70d4689060200160405180910390a150505050505050505050565b6000546001600160a01b03163314620004f35760405162461bcd60e51b81526004016200014b9062000779565b6001600160a01b0381166200055a5760405162461bcd60e51b815260206004820152602660248201527f4f776e61626c653a206e6577206f776e657220697320746865207a65726f206160448201526564647265737360d01b60648201526084016200014b565b620005658162000568565b50565b600080546001600160a01b038381166001600160a01b0319831681178455604051919092169283917f8be0079c531659141344cd1fd0a4f28419497f9722a3daafe3b4186f6b6457e09190a35050565b614956806200086c83390190565b634e487b7160e01b600052604160045260246000fd5b80356001600160a01b0381168114620005f457600080fd5b919050565b803561ffff81168114620005f457600080fd5b60008060008060008060008060006101208a8c0312156200062c57600080fd5b893567ffffffffffffffff808211156200064557600080fd5b818c0191508c601f8301126200065a57600080fd5b8135818111156200066f576200066f620005c6565b604051601f8201601f19908116603f011681019083821181831017156200069a576200069a620005c6565b816040528281528f6020848701011115620006b457600080fd5b82602086016020830137600060208483010152809d505050505050620006dd60208b01620005dc565b9750620006ed60408b01620005dc565b9650620006fd60608b01620005dc565b95506200070d60808b01620005f9565b94506200071d60a08b01620005dc565b93506200072d60c08b01620005dc565b92506200073d60e08b01620005dc565b91506101008a013590509295985092959850929598565b6000602082840312156200076757600080fd5b6200077282620005dc565b9392505050565b6020808252818101527f4f776e61626c653a2063616c6c6572206973206e6f7420746865206f776e6572604082015260600190565b60006101208083528b518082850152600091505b80821015620007e6576020828e0101516101408386010152602082019150620007c2565b80821115620007fa57600061014082860101525b601f01601f19168301610140019150620008219050602083018b6001600160a01b03169052565b6001600160a01b039889166040830152968816606082015261ffff95909516608086015292861660a085015290851660c084015290931660e082015261010001919091529291505056fe608060405260006009819055600a819055600b55612710600c55600d80546001600160401b03191667015e015e000a01f41790553480156200004057600080fd5b5060405162004956380380620049568339810160408190526200006391620005bd565b8860405160200162000076919062000704565b6040516020818303038152906040528960405160200162000098919062000704565b60408051601f198184030181529190528151620000bd90600390602085019062000446565b508051620000d390600490602084019062000446565b5050506001600160a01b038816620001215760405162461bcd60e51b815260206004820152601c60248201526000805160206200493683398151915260448201526064015b60405180910390fd5b6001600160a01b038716620001685760405162461bcd60e51b815260206004820152601c602482015260008051602062004936833981519152604482015260640162000118565b6001600160a01b038616620001af5760405162461bcd60e51b815260206004820152601c602482015260008051602062004936833981519152604482015260640162000118565b6001600160a01b038416620001f65760405162461bcd60e51b815260206004820152601c602482015260008051602062004936833981519152604482015260640162000118565b6001600160a01b0383166200023d5760405162461bcd60e51b815260206004820152601c602482015260008051602062004936833981519152604482015260640162000118565b6001600160a01b038216620002845760405162461bcd60e51b815260206004820152601c602482015260008051602062004936833981519152604482015260640162000118565b8851620002999060129060208c019062000446565b50600f80546001600160a01b038681166001600160a01b0319928316179092556010805486841690831617905560118054858416908316179055600983905560058054898416908316811790915560009081526006602052604090819020805460ff19166001179055600780548c851690841617905560088054938b1693909216929092179055600d805461ffff881661ffff19909116179055805160028082526060820190925290816020016020820280368337505081516200036592600e925060200190620004d5565b50600854600e80546001600160a01b03909216916000906200038b576200038b62000734565b600091825260209091200180546001600160a01b0319166001600160a01b03928316179055600754600e80549190921691906001908110620003d157620003d162000734565b600091825260209091200180546001600160a01b03929092166001600160a01b031992831617905560138054821673def171fe48cf0115b1d80b88dc8eab59176fee5717905560148054909116731111111254fb6c44bac0bed2854e76f90643097d1790555062000787975050505050505050565b82805462000454906200074a565b90600052602060002090601f016020900481019282620004785760008555620004c3565b82601f106200049357805160ff1916838001178555620004c3565b82800160010185558215620004c3579182015b82811115620004c3578251825591602001919060010190620004a6565b50620004d19291506200052d565b5090565b828054828255906000526020600020908101928215620004c3579160200282015b82811115620004c357825182546001600160a01b0319166001600160a01b03909116178255602090920191600190910190620004f6565b5b80821115620004d157600081556001016200052e565b634e487b7160e01b600052604160045260246000fd5b60005b83811015620005775781810151838201526020016200055d565b8381111562000587576000848401525b50505050565b80516001600160a01b0381168114620005a557600080fd5b919050565b805161ffff81168114620005a557600080fd5b60008060008060008060008060006101208a8c031215620005dd57600080fd5b89516001600160401b0380821115620005f557600080fd5b818c0191508c601f8301126200060a57600080fd5b8151818111156200061f576200061f62000544565b604051601f8201601f19908116603f011681019083821181831017156200064a576200064a62000544565b816040528281528f60208487010111156200066457600080fd5b620006778360208301602088016200055a565b809d5050505050506200068d60208b016200058d565b97506200069d60408b016200058d565b9650620006ad60608b016200058d565b9550620006bd60808b01620005aa565b9450620006cd60a08b016200058d565b9350620006dd60c08b016200058d565b9250620006ed60e08b016200058d565b91506101008a015190509295985092959850929598565b6578554258545f60d01b815260008251620007278160068501602087016200055a565b9190910160060192915050565b634e487b7160e01b600052603260045260246000fd5b600181811c908216806200075f57607f821691505b602082108114156200078157634e487b7160e01b600052602260045260246000fd5b50919050565b61419f80620007976000396000f3fe6080604052600436106103035760003560e01c806366d16cc311610190578063b51ae485116100dc578063dd62ed3e11610095578063f38d0d401161006f578063f38d0d401461095b578063f3ae6c5f1461097b578063fa1a5f591461099b578063fed1252a146109b157600080fd5b8063dd62ed3e146108fe578063e53d2c4c14610944578063ee20b6ca146105fe57600080fd5b8063b51ae48514610832578063bbbaa0d214610852578063c21ebd0714610874578063c55dae631461089c578063c7b9d530146108bc578063d5344f79146108dc57600080fd5b806390118b571161014957806398ee38d21161012357806398ee38d2146107bc578063a457c2d7146107dd578063a6f2ae3a146107fd578063a9059cbb1461081257600080fd5b806390118b571461077257806393c585431461079257806395d89b41146107a757600080fd5b806366d16cc3146106a85780636904c94d146106be57806370a08231146106de5780637cb89d54146107145780638ade21681461072a5780638d72647e1461074a57600080fd5b806327bed8ee1161024f5780633af32abf1161020857806347ee0394116101e257806347ee0394146106335780634ec18db914610653578063555af0fd14610668578063597de10c1461068857600080fd5b80633af32abf146105de57806343f41d2b146105fe578063457100741461061e57600080fd5b806327bed8ee146105125780632e1a7d4d14610532578063313ce56714610552578063372c12b11461056e578063395093511461059e5780633a0130a8146105be57600080fd5b806318160ddd116102bc5780631fe4a686116102965780631fe4a68614610484578063217a4b70146104bc57806323548b8b146104dc57806323b872dd146104f257600080fd5b806318160ddd1461041e5780631a085fe1146104335780631dade7821461046157600080fd5b806301bf66481461034857806306fdde031461036a57806309218e9114610395578063095ea7b3146103b95780630ace9ca0146103e95780630da54f9f146103fe57600080fd5b36610343577f88a5966d370b9919b20f3e2c13ff65706f196a4e32cc2c12bf57088f885258743334604051610339929190613af5565b60405180910390a1005b600080fd5b34801561035457600080fd5b50610368610363366004613b2a565b6109d1565b005b34801561037657600080fd5b5061037f610a25565b60405161038c9190613b78565b60405180910390f35b3480156103a157600080fd5b506103ab600a5481565b60405190815260200161038c565b3480156103c557600080fd5b506103d96103d4366004613bab565b610ab7565b604051901515815260200161038c565b3480156103f557600080fd5b5061037f610ace565b34801561040a57600080fd5b50610368610419366004613c1c565b610b5c565b34801561042a57600080fd5b506002546103ab565b34801561043f57600080fd5b50600d5461044e9061ffff1681565b60405161ffff909116815260200161038c565b34801561046d57600080fd5b50600d5461044e90640100000000900461ffff1681565b34801561049057600080fd5b506005546104a4906001600160a01b031681565b6040516001600160a01b03909116815260200161038c565b3480156104c857600080fd5b506007546104a4906001600160a01b031681565b3480156104e857600080fd5b506103ab60095481565b3480156104fe57600080fd5b506103d961050d366004613cb1565b610c0d565b34801561051e57600080fd5b5061036861052d366004613ced565b610cb7565b34801561053e57600080fd5b5061036861054d366004613ced565b6110be565b34801561055e57600080fd5b506040516012815260200161038c565b34801561057a57600080fd5b506103d9610589366004613b2a565b60066020526000908152604090205460ff1681565b3480156105aa57600080fd5b506103d96105b9366004613bab565b611497565b3480156105ca57600080fd5b506103686105d9366004613d18565b6114d3565b3480156105ea57600080fd5b506103d96105f9366004613b2a565b61177a565b34801561060a57600080fd5b50610368610619366004613bab565b611798565b34801561062a57600080fd5b506103686118d8565b34801561063f57600080fd5b5061036861064e366004613b2a565b611b59565b34801561065f57600080fd5b506103ab611ba7565b34801561067457600080fd5b50610368610683366004613c1c565b611c2c565b34801561069457600080fd5b506103686106a3366004613c1c565b611f2f565b3480156106b457600080fd5b506103ab600c5481565b3480156106ca57600080fd5b50600f546104a4906001600160a01b031681565b3480156106ea57600080fd5b506103ab6106f9366004613b2a565b6001600160a01b031660009081526020819052604090205490565b34801561072057600080fd5b5061044e61271081565b34801561073657600080fd5b506013546104a4906001600160a01b031681565b34801561075657600080fd5b506104a473bb4cdb9cbd36b01bd1cbaebf2de08d9173bc095c81565b34801561077e57600080fd5b506014546104a4906001600160a01b031681565b34801561079e57600080fd5b506103686120f8565b3480156107b357600080fd5b5061037f6121cc565b3480156107c857600080fd5b50600d5461044e9062010000900461ffff1681565b3480156107e957600080fd5b506103d96107f8366004613bab565b6121db565b34801561080957600080fd5b50610368612274565b34801561081e57600080fd5b506103d961082d366004613bab565b6123bb565b34801561083e57600080fd5b5061036861084d366004613bab565b6123c8565b34801561085e57600080fd5b506104a460008051602061414a83398151915281565b34801561088057600080fd5b506104a47310ed43c718714eb63d5aa57b78b54704e256024e81565b3480156108a857600080fd5b506008546104a4906001600160a01b031681565b3480156108c857600080fd5b506103686108d7366004613b2a565b61244e565b3480156108e857600080fd5b50600d5461044e90600160301b900461ffff1681565b34801561090a57600080fd5b506103ab610919366004613da8565b6001600160a01b03918216600090815260016020908152604080832093909416825291909152205490565b34801561095057600080fd5b506103ab620f424081565b34801561096757600080fd5b506011546104a4906001600160a01b031681565b34801561098757600080fd5b50610368610996366004613ced565b6124d5565b3480156109a757600080fd5b506103ab600b5481565b3480156109bd57600080fd5b506010546104a4906001600160a01b031681565b6005546001600160a01b03163314610a045760405162461bcd60e51b81526004016109fb90613ddb565b60405180910390fd5b6001600160a01b03166000908152600660205260409020805460ff19169055565b606060038054610a3490613e03565b80601f0160208091040260200160405190810160405280929190818152602001828054610a6090613e03565b8015610aad5780601f10610a8257610100808354040283529160200191610aad565b820191906000526020600020905b815481529060010190602001808311610a9057829003601f168201915b5050505050905090565b6000610ac433848461281b565b5060015b92915050565b60128054610adb90613e03565b80601f0160208091040260200160405190810160405280929190818152602001828054610b0790613e03565b8015610b545780601f10610b2957610100808354040283529160200191610b54565b820191906000526020600020905b815481529060010190602001808311610b3757829003601f168201915b505050505081565b6005546001600160a01b03163314610b865760405162461bcd60e51b81526004016109fb90613ddb565b6014546040516000916001600160a01b031690610ba4908490613e3e565b6000604051808303816000865af19150503d8060008114610be1576040519150601f19603f3d011682016040523d82523d6000602084013e610be6565b606091505b5050905080610bf9573d6000803e3d6000fd5b5050612710600c556000600b819055600a55565b6000610c1a84848461293f565b6001600160a01b038416600090815260016020908152604080832033845290915290205482811015610c9f5760405162461bcd60e51b815260206004820152602860248201527f45524332303a207472616e7366657220616d6f756e74206578636565647320616044820152676c6c6f77616e636560c01b60648201526084016109fb565b610cac853385840361281b565b506001949350505050565b6000610cc1611ba7565b60405163d06ca61f60e01b81529091506000907310ed43c718714eb63d5aa57b78b54704e256024e9063d06ca61f90610d01908690600e90600401613e5a565b600060405180830381865afa158015610d1e573d6000803e3d6000fd5b505050506040513d6000823e601f3d908101601f19168201604052610d469190810190613eb6565b905060008160018351610d599190613f72565b81518110610d6957610d69613f89565b6020026020010151905060095460001480610d8e5750600954610d8c8285613f9f565b105b610dda5760405162461bcd60e51b815260206004820152601d60248201527f546865207661756c74207265616368656420746865206d61782063617000000060448201526064016109fb565b6008546040516370a0823160e01b81523060048201526000916001600160a01b0316906370a0823190602401602060405180830381865afa158015610e23573d6000803e3d6000fd5b505050506040513d601f19601f82011682018060405250810190610e479190613fb7565b6008546040516323b872dd60e01b8152336004820152306024820152604481018890529192506001600160a01b0316906323b872dd906064016020604051808303816000875af1158015610e9f573d6000803e3d6000fd5b505050506040513d601f19601f82011682018060405250810190610ec39190613fd0565b506008546040516370a0823160e01b81523060048201526000916001600160a01b0316906370a0823190602401602060405180830381865afa158015610f0d573d6000803e3d6000fd5b505050506040513d601f19601f82011682018060405250810190610f319190613fb7565b9050610f3d8282613f72565b9550819450600a5460001415611057576007546040516370a0823160e01b81523060048201526001600160a01b03909116906370a0823190602401602060405180830381865afa158015610f95573d6000803e3d6000fd5b505050506040513d601f19601f82011682018060405250810190610fb99190613fb7565b600854600754919350610fd9916001600160a01b03918216911688612b0f565b6007546040516370a0823160e01b81523060048201526001600160a01b03909116906370a0823190602401602060405180830381865afa158015611021573d6000803e3d6000fd5b505050506040513d601f19601f820116820180604052508101906110459190613fb7565b90506110518282613f72565b95508194505b600a54600114156110745782600b546110709190613f9f565b600b555b600061107f60025490565b61108a5750856110ab565b8561109460025490565b61109e9089613ff2565b6110a89190614011565b90505b6110b53382612dad565b50505050505050565b336000908152602081905260409020548111156111145760405162461bcd60e51b81526020600482015260146024820152731a5b9d985b1a59081cda185c9948185b5bdd5b9d60621b60448201526064016109fb565b600a5461122757600061112660025490565b6007546040516370a0823160e01b815230600482015284916001600160a01b0316906370a0823190602401602060405180830381865afa15801561116e573d6000803e3d6000fd5b505050506040513d601f19601f820116820180604052508101906111929190613fb7565b61119c9190613ff2565b6111a69190614011565b905080156112255760075460405163a9059cbb60e01b81526001600160a01b039091169063a9059cbb906111e09033908590600401613af5565b6020604051808303816000875af11580156111ff573d6000803e3d6000fd5b505050506040513d601f19601f820116820180604052508101906112239190613fd0565b505b505b600a546001141561148a57600061123d60025490565b6008546040516370a0823160e01b815230600482015284916001600160a01b0316906370a0823190602401602060405180830381865afa158015611285573d6000803e3d6000fd5b505050506040513d601f19601f820116820180604052508101906112a99190613fb7565b6112b39190613ff2565b6112bd9190614011565b60405163d06ca61f60e01b81529091506000907310ed43c718714eb63d5aa57b78b54704e256024e9063d06ca61f906112fd908590600e90600401613e5a565b600060405180830381865afa15801561131a573d6000803e3d6000fd5b505050506040513d6000823e601f3d908101601f191682016040526113429190810190613eb6565b9050600061134f60025490565b84600b5461135d9190613ff2565b6113679190614011565b9050600081836001855161137b9190613f72565b8151811061138b5761138b613f89565b6020026020010151600c546113a09190613ff2565b6113aa9190614011565b90506127108111156113f7576000816113c561271082613f72565b6113cf9087613ff2565b6113d99190614011565b905060006113e682612e8c565b90506113f28187613f72565b955050505b81600b546114059190613f72565b600b5583156114855760085460405163a9059cbb60e01b81526001600160a01b039091169063a9059cbb906114409033908890600401613af5565b6020604051808303816000875af115801561145f573d6000803e3d6000fd5b505050506040513d601f19601f820116820180604052508101906114839190613fd0565b505b505050505b611494338261330d565b50565b3360008181526001602090815260408083206001600160a01b03871684529091528120549091610ac49185906114ce908690613f9f565b61281b565b6001600160a01b0384166114f95760405162461bcd60e51b81526004016109fb90614033565b6001600160a01b03831661151f5760405162461bcd60e51b81526004016109fb90614033565b6001600160a01b0382166115455760405162461bcd60e51b81526004016109fb90614033565b6005546001600160a01b0316331461156f5760405162461bcd60e51b81526004016109fb90613ddb565b83600f60006101000a8154816001600160a01b0302191690836001600160a01b0316021790555082601060006101000a8154816001600160a01b0302191690836001600160a01b0316021790555081601160006101000a8154816001600160a01b0302191690836001600160a01b0316021790555087600d60006101000a81548161ffff021916908361ffff16021790555086600d60026101000a81548161ffff021916908361ffff16021790555085600d60046101000a81548161ffff021916908361ffff16021790555084600d60066101000a81548161ffff021916908361ffff160217905550806009819055507fa67074d9fedec020dc10bf99d89e6807b835ff80f7a78a010d7b1233aa6db31b600f60009054906101000a90046001600160a01b0316601060009054906101000a90046001600160a01b0316601160009054906101000a90046001600160a01b0316600d60009054906101000a900461ffff16600d60029054906101000a900461ffff16600d60049054906101000a900461ffff16600d60069054906101000a900461ffff166009546040516117689897969594939291906001600160a01b039889168152968816602088015294909616604086015261ffff92831660608601529082166080850152811660a08401529290921660c082015260e08101919091526101000190565b60405180910390a15050505050505050565b6001600160a01b031660009081526006602052604090205460ff1690565b6005546001600160a01b031633146117c25760405162461bcd60e51b81526004016109fb90613ddb565b6001600160a01b0382166117e85760405162461bcd60e51b81526004016109fb90614033565b60075460405163095ea7b360e01b81526001600160a01b039091169063095ea7b39061181a9085908590600401613af5565b6020604051808303816000875af1158015611839573d6000803e3d6000fd5b505050506040513d601f19601f8201168201806040525081019061185d9190613fd0565b5060085460405163095ea7b360e01b81526001600160a01b039091169063095ea7b3906118909085908590600401613af5565b6020604051808303816000875af11580156118af573d6000803e3d6000fd5b505050506040513d601f19601f820116820180604052508101906118d39190613fd0565b505050565b6118e13361177a565b6118fd5760405162461bcd60e51b81526004016109fb9061406a565b600a5460011461194f5760405162461bcd60e51b815260206004820152601f60248201527f546865207661756c7420697320696e20636c6f73656420706f736974696f6e0060448201526064016109fb565b6008546040516370a0823160e01b81523060048201526000916001600160a01b0316906370a0823190602401602060405180830381865afa158015611998573d6000803e3d6000fd5b505050506040513d601f19601f820116820180604052508101906119bc9190613fb7565b90508015611b4c576008546119da906001600160a01b03168261345b565b6007546040516370a0823160e01b81523060048201529192506000916001600160a01b03909116906370a0823190602401602060405180830381865afa158015611a28573d6000803e3d6000fd5b505050506040513d601f19601f82011682018060405250810190611a4c9190613fb7565b600854600754919250611a6c916001600160a01b03918216911684612b0f565b6007546040516370a0823160e01b81523060048201526000916001600160a01b0316906370a0823190602401602060405180830381865afa158015611ab5573d6000803e3d6000fd5b505050506040513d601f19601f82011682018060405250810190611ad99190613fb7565b9050611ae58282613f72565b9250600b5483600c54611af89190613ff2565b611b029190614011565b600c8190556127101015611b4957600c54600090611b2261271082613f72565b611b2c9086613ff2565b611b369190614011565b9050611b418161363a565b50612710600c555b50505b506000600b819055600a55565b6005546001600160a01b03163314611b835760405162461bcd60e51b81526004016109fb90613ddb565b6001600160a01b03166000908152600660205260409020805460ff19166001179055565b6000611bb16139bd565b6007546040516370a0823160e01b81523060048201526001600160a01b03909116906370a0823190602401602060405180830381865afa158015611bf9573d6000803e3d6000fd5b505050506040513d601f19601f82011682018060405250810190611c1d9190613fb7565b611c279190613f9f565b905090565b6014546001600160a01b0316611c545760405162461bcd60e51b81526004016109fb90614033565b611c5d3361177a565b611c795760405162461bcd60e51b81526004016109fb9061406a565b600a54600114611ccb5760405162461bcd60e51b815260206004820152601f60248201527f546865207661756c7420697320696e20636c6f73656420706f736974696f6e0060448201526064016109fb565b6008546040516370a0823160e01b81523060048201526000916001600160a01b0316906370a0823190602401602060405180830381865afa158015611d14573d6000803e3d6000fd5b505050506040513d601f19601f82011682018060405250810190611d389190613fb7565b90508015611f2157600854611d56906001600160a01b03168261345b565b6007546040516370a0823160e01b81523060048201529192506000916001600160a01b03909116906370a0823190602401602060405180830381865afa158015611da4573d6000803e3d6000fd5b505050506040513d601f19601f82011682018060405250810190611dc89190613fb7565b6014546040519192506000916001600160a01b0390911690611deb908690613e3e565b6000604051808303816000865af19150503d8060008114611e28576040519150601f19603f3d011682016040523d82523d6000602084013e611e2d565b606091505b5050905080611e40573d6000803e3d6000fd5b6007546040516370a0823160e01b81523060048201526000916001600160a01b0316906370a0823190602401602060405180830381865afa158015611e89573d6000803e3d6000fd5b505050506040513d601f19601f82011682018060405250810190611ead9190613fb7565b9050611eb98382613f72565b9350600b5484600c54611ecc9190613ff2565b611ed69190614011565b600c8190556127101015611f1d57600c54600090611ef661271082613f72565b611f009087613ff2565b611f0a9190614011565b9050611f158161363a565b50612710600c555b5050505b50506000600b819055600a55565b6014546001600160a01b0316611f575760405162461bcd60e51b81526004016109fb90614033565b611f603361177a565b611f7c5760405162461bcd60e51b81526004016109fb9061406a565b600a5415611f9c5760405162461bcd60e51b81526004016109fb90614093565b6007546040516370a0823160e01b81523060048201526000916001600160a01b0316906370a0823190602401602060405180830381865afa158015611fe5573d6000803e3d6000fd5b505050506040513d601f19601f820116820180604052508101906120099190613fb7565b90506000811161205b5760405162461bcd60e51b815260206004820152601a60248201527f4e6f20656e6f7567682062616c616e636520746f20747261646500000000000060448201526064016109fb565b600754612071906001600160a01b03168261345b565b600b8190556014546040519192506000916001600160a01b0390911690612099908590613e3e565b6000604051808303816000865af19150503d80600081146120d6576040519150601f19603f3d011682016040523d82523d6000602084013e6120db565b606091505b50509050806120ee573d6000803e3d6000fd5b50506001600a5550565b6005546001600160a01b031633146121225760405162461bcd60e51b81526004016109fb90613ddb565b6008546040516370a0823160e01b81523060048201526000916001600160a01b0316906370a0823190602401602060405180830381865afa15801561216b573d6000803e3d6000fd5b505050506040513d601f19601f8201168201806040525081019061218f9190613fb7565b9050620f42408111156121b9576008546007546121b9916001600160a01b03908116911683612b0f565b50612710600c556000600b819055600a55565b606060048054610a3490613e03565b3360009081526001602090815260408083206001600160a01b03861684529091528120548281101561225d5760405162461bcd60e51b815260206004820152602560248201527f45524332303a2064656372656173656420616c6c6f77616e63652062656c6f77604482015264207a65726f60d81b60648201526084016109fb565b61226a338585840361281b565b5060019392505050565b61227d3361177a565b6122995760405162461bcd60e51b81526004016109fb9061406a565b600a54156122b95760405162461bcd60e51b81526004016109fb90614093565b6007546040516370a0823160e01b81523060048201526000916001600160a01b0316906370a0823190602401602060405180830381865afa158015612302573d6000803e3d6000fd5b505050506040513d601f19601f820116820180604052508101906123269190613fb7565b9050600081116123785760405162461bcd60e51b815260206004820152601a60248201527f4e6f20656e6f7567682062616c616e636520746f20747261646500000000000060448201526064016109fb565b60075461238e906001600160a01b03168261345b565b600b8190556007546008549192506123b3916001600160a01b03918216911683612b0f565b506001600a55565b6000610ac433848461293f565b6005546001600160a01b031633146123f25760405162461bcd60e51b81526004016109fb90613ddb565b6001600160a01b0382166124185760405162461bcd60e51b81526004016109fb90614033565b6040516001600160a01b0383169082156108fc029083906000818181858888f193505050501580156118d3573d6000803e3d6000fd5b6001600160a01b0381166124745760405162461bcd60e51b81526004016109fb90614033565b6005546001600160a01b0316331461249e5760405162461bcd60e51b81526004016109fb90613ddb565b6001600160a01b03166000818152600660205260409020805460ff19166001179055600580546001600160a01b0319169091179055565b60006124df611ba7565b9050600954600014806124fc57506009546124fa8383613f9f565b105b6125485760405162461bcd60e51b815260206004820152601d60248201527f546865207661756c74207265616368656420746865206d61782063617000000060448201526064016109fb565b6007546040516370a0823160e01b81523060048201526000916001600160a01b0316906370a0823190602401602060405180830381865afa158015612591573d6000803e3d6000fd5b505050506040513d601f19601f820116820180604052508101906125b59190613fb7565b6007546040516323b872dd60e01b8152336004820152306024820152604481018690529192506001600160a01b0316906323b872dd906064016020604051808303816000875af115801561260d573d6000803e3d6000fd5b505050506040513d601f19601f820116820180604052508101906126319190613fd0565b506007546040516370a0823160e01b81523060048201526000916001600160a01b0316906370a0823190602401602060405180830381865afa15801561267b573d6000803e3d6000fd5b505050506040513d601f19601f8201168201806040525081019061269f9190613fb7565b90506126ab8282613f72565b9350600a54600114156127d35783600b546126c69190613f9f565b600b556008546040516370a0823160e01b81523060048201526001600160a01b03909116906370a0823190602401602060405180830381865afa158015612711573d6000803e3d6000fd5b505050506040513d601f19601f820116820180604052508101906127359190613fb7565b600754600854919350612755916001600160a01b03918216911686612b0f565b6008546040516370a0823160e01b81523060048201526001600160a01b03909116906370a0823190602401602060405180830381865afa15801561279d573d6000803e3d6000fd5b505050506040513d601f19601f820116820180604052508101906127c19190613fb7565b90506127cd8282613f72565b93508192505b60006127de60025490565b6127e957508361280a565b836127f360025490565b6127fd9087613ff2565b6128079190614011565b90505b6128143382612dad565b5050505050565b6001600160a01b03831661287d5760405162461bcd60e51b8152602060048201526024808201527f45524332303a20617070726f76652066726f6d20746865207a65726f206164646044820152637265737360e01b60648201526084016109fb565b6001600160a01b0382166128de5760405162461bcd60e51b815260206004820152602260248201527f45524332303a20617070726f766520746f20746865207a65726f206164647265604482015261737360f01b60648201526084016109fb565b6001600160a01b0383811660008181526001602090815260408083209487168084529482529182902085905590518481527f8c5be1e5ebec7d5bd14f71427d1e84f3dd0314c0f7b2291e5b200ac8c7c3b925910160405180910390a3505050565b6001600160a01b0383166129a35760405162461bcd60e51b815260206004820152602560248201527f45524332303a207472616e736665722066726f6d20746865207a65726f206164604482015264647265737360d81b60648201526084016109fb565b6001600160a01b038216612a055760405162461bcd60e51b815260206004820152602360248201527f45524332303a207472616e7366657220746f20746865207a65726f206164647260448201526265737360e81b60648201526084016109fb565b6001600160a01b03831660009081526020819052604090205481811015612a7d5760405162461bcd60e51b815260206004820152602660248201527f45524332303a207472616e7366657220616d6f756e7420657863656564732062604482015265616c616e636560d01b60648201526084016109fb565b6001600160a01b03808516600090815260208190526040808220858503905591851681529081208054849290612ab4908490613f9f565b92505081905550826001600160a01b0316846001600160a01b03167fddf252ad1be2c89b69c2b068fc378daa952ba7f163c4a11628f55a4df523b3ef84604051612b0091815260200190565b60405180910390a35b50505050565b6001600160a01b038216612b2257600080fd5b60405163095ea7b360e01b81526001600160a01b0384169063095ea7b390612b65907310ed43c718714eb63d5aa57b78b54704e256024e90600090600401613af5565b6020604051808303816000875af1158015612b84573d6000803e3d6000fd5b505050506040513d601f19601f82011682018060405250810190612ba89190613fd0565b5060405163095ea7b360e01b81526001600160a01b0384169063095ea7b390612beb907310ed43c718714eb63d5aa57b78b54704e256024e908590600401613af5565b6020604051808303816000875af1158015612c0a573d6000803e3d6000fd5b505050506040513d601f19601f82011682018060405250810190612c2e9190613fd0565b5060408051600280825260608083018452926020830190803683370190505090508381600081518110612c6357612c63613f89565b60200260200101906001600160a01b031690816001600160a01b0316815250508281600181518110612c9757612c97613f89565b6001600160a01b039092166020928302919091019091015260007310ed43c718714eb63d5aa57b78b54704e256024e6338ed173984838530612cda42603c613f9f565b6040518663ffffffff1660e01b8152600401612cfa9594939291906140d8565b6000604051808303816000875af1158015612d19573d6000803e3d6000fd5b505050506040513d6000823e601f3d908101601f19168201604052612d419190810190613eb6565b9050600081600081518110612d5857612d58613f89565b6020026020010151116128145760405162461bcd60e51b815260206004820181905260248201527f5468657265207761732070726f626c656d20696e2070616e63616b657377617060448201526064016109fb565b6001600160a01b038216612e035760405162461bcd60e51b815260206004820152601f60248201527f45524332303a206d696e7420746f20746865207a65726f20616464726573730060448201526064016109fb565b8060026000828254612e159190613f9f565b90915550506001600160a01b03821660009081526020819052604081208054839290612e42908490613f9f565b90915550506040518181526001600160a01b038316906000907fddf252ad1be2c89b69c2b068fc378daa952ba7f163c4a11628f55a4df523b3ef9060200160405180910390a35050565b600081612e9b57506000919050565b600d5460009061271090612ebb90640100000000900461ffff1685613ff2565b612ec59190614011565b600d5490915060009061271090612ee790600160301b900461ffff1686613ff2565b612ef19190614011565b600d5490915060009061271090612f0c9061ffff1687613ff2565b612f169190614011565b9050600083612f258385613f9f565b612f2f9190613f9f565b6040516370a0823160e01b815230600482015290915060009060008051602061414a833981519152906370a0823190602401602060405180830381865afa158015612f7e573d6000803e3d6000fd5b505050506040513d601f19601f82011682018060405250810190612fa29190613fb7565b6008546040516370a0823160e01b81523060048201529192506000916001600160a01b03909116906370a0823190602401602060405180830381865afa158015612ff0573d6000803e3d6000fd5b505050506040513d601f19601f820116820180604052508101906130149190613fb7565b60085490915061303c906001600160a01b031660008051602061414a83398151915285612b0f565b6040516370a0823160e01b815230600482015260009060008051602061414a833981519152906370a0823190602401602060405180830381865afa158015613088573d6000803e3d6000fd5b505050506040513d601f19601f820116820180604052508101906130ac9190613fb7565b6008546040516370a0823160e01b81523060048201529192506000916001600160a01b03909116906370a0823190602401602060405180830381865afa1580156130fa573d6000803e3d6000fd5b505050506040513d601f19601f8201168201806040525081019061311e9190613fb7565b9050600061312c8584613f72565b9050600061313a8386613f72565b9050866131478a84613ff2565b6131519190614011565b98508661315e8984613ff2565b6131689190614011565b9750876131758a84613f72565b61317f9190613f72565b60405163a9059cbb60e01b8152909a5060008051602061414a8339815191529063a9059cbb906131b6906000908e90600401613af5565b6020604051808303816000875af11580156131d5573d6000803e3d6000fd5b505050506040513d601f19601f820116820180604052508101906131f99190613fd0565b5060105460405163a9059cbb60e01b815260008051602061414a8339815191529163a9059cbb91613238916001600160a01b0316908d90600401613af5565b6020604051808303816000875af1158015613257573d6000803e3d6000fd5b505050506040513d601f19601f8201168201806040525081019061327b9190613fd0565b5060115460405163a9059cbb60e01b815260008051602061414a8339815191529163a9059cbb916132ba916001600160a01b0316908c90600401613af5565b6020604051808303816000875af11580156132d9573d6000803e3d6000fd5b505050506040513d601f19601f820116820180604052508101906132fd9190613fd0565b509b9a5050505050505050505050565b6001600160a01b03821661336d5760405162461bcd60e51b815260206004820152602160248201527f45524332303a206275726e2066726f6d20746865207a65726f206164647265736044820152607360f81b60648201526084016109fb565b6001600160a01b038216600090815260208190526040902054818110156133e15760405162461bcd60e51b815260206004820152602260248201527f45524332303a206275726e20616d6f756e7420657863656564732062616c616e604482015261636560f01b60648201526084016109fb565b6001600160a01b0383166000908152602081905260408120838303905560028054849290613410908490613f72565b90915550506040518281526000906001600160a01b038516907fddf252ad1be2c89b69c2b068fc378daa952ba7f163c4a11628f55a4df523b3ef9060200160405180910390a3505050565b60008161346a57506000610ac8565b600d54600090612710906134889062010000900461ffff1685613ff2565b6134929190614011565b6040516370a0823160e01b815230600482015290915060009060008051602061414a833981519152906370a0823190602401602060405180830381865afa1580156134e1573d6000803e3d6000fd5b505050506040513d601f19601f820116820180604052508101906135059190613fb7565b90506135208560008051602061414a83398151915284612b0f565b6040516370a0823160e01b815230600482015260009060008051602061414a833981519152906370a0823190602401602060405180830381865afa15801561356c573d6000803e3d6000fd5b505050506040513d601f19601f820116820180604052508101906135909190613fb7565b9050600061359e8383613f72565b600f5460405163a9059cbb60e01b815291925060008051602061414a8339815191529163a9059cbb916135e1916001600160a01b03909116908590600401613af5565b6020604051808303816000875af1158015613600573d6000803e3d6000fd5b505050506040513d601f19601f820116820180604052508101906136249190613fd0565b5061362f8487613f72565b979650505050505050565b806136425750565b600d546000906127109061366290640100000000900461ffff1684613ff2565b61366c9190614011565b600d549091506000906127109061368e90600160301b900461ffff1685613ff2565b6136989190614011565b600d54909150600090612710906136b39061ffff1686613ff2565b6136bd9190614011565b90506000836136cc8385613f9f565b6136d69190613f9f565b6040516370a0823160e01b815230600482015290915060009060008051602061414a833981519152906370a0823190602401602060405180830381865afa158015613725573d6000803e3d6000fd5b505050506040513d601f19601f820116820180604052508101906137499190613fb7565b600754909150613771906001600160a01b031660008051602061414a83398151915284612b0f565b6040516370a0823160e01b815230600482015260009060008051602061414a833981519152906370a0823190602401602060405180830381865afa1580156137bd573d6000803e3d6000fd5b505050506040513d601f19601f820116820180604052508101906137e19190613fb7565b905060006137ef8383613f72565b9050836137fc8783613ff2565b6138069190614011565b9550836138138683613ff2565b61381d9190614011565b94508461382a8783613f72565b6138349190613f72565b60405163a9059cbb60e01b815290975060008051602061414a8339815191529063a9059cbb9061386b906000908b90600401613af5565b6020604051808303816000875af115801561388a573d6000803e3d6000fd5b505050506040513d601f19601f820116820180604052508101906138ae9190613fd0565b5060105460405163a9059cbb60e01b815260008051602061414a8339815191529163a9059cbb916138ed916001600160a01b0316908a90600401613af5565b6020604051808303816000875af115801561390c573d6000803e3d6000fd5b505050506040513d601f19601f820116820180604052508101906139309190613fd0565b5060115460405163a9059cbb60e01b815260008051602061414a8339815191529163a9059cbb9161396f916001600160a01b0316908990600401613af5565b6020604051808303816000875af115801561398e573d6000803e3d6000fd5b505050506040513d601f19601f820116820180604052508101906139b29190613fd0565b505050505050505050565b6008546040516370a0823160e01b815230600482015260009182916001600160a01b03909116906370a0823190602401602060405180830381865afa158015613a0a573d6000803e3d6000fd5b505050506040513d601f19601f82011682018060405250810190613a2e9190613fb7565b9050620f4240811015613a4357600091505090565b60405163d06ca61f60e01b81526000907310ed43c718714eb63d5aa57b78b54704e256024e9063d06ca61f90613a80908590600e90600401613e5a565b600060405180830381865afa158015613a9d573d6000803e3d6000fd5b505050506040513d6000823e601f3d908101601f19168201604052613ac59190810190613eb6565b90508060018251613ad69190613f72565b81518110613ae657613ae6613f89565b60200260200101519250505090565b6001600160a01b03929092168252602082015260400190565b80356001600160a01b0381168114613b2557600080fd5b919050565b600060208284031215613b3c57600080fd5b613b4582613b0e565b9392505050565b60005b83811015613b67578181015183820152602001613b4f565b83811115612b095750506000910152565b6020815260008251806020840152613b97816040850160208701613b4c565b601f01601f19169190910160400192915050565b60008060408385031215613bbe57600080fd5b613bc783613b0e565b946020939093013593505050565b634e487b7160e01b600052604160045260246000fd5b604051601f8201601f1916810167ffffffffffffffff81118282101715613c1457613c14613bd5565b604052919050565b60006020808385031215613c2f57600080fd5b823567ffffffffffffffff80821115613c4757600080fd5b818501915085601f830112613c5b57600080fd5b813581811115613c6d57613c6d613bd5565b613c7f601f8201601f19168501613beb565b91508082528684828501011115613c9557600080fd5b8084840185840137600090820190930192909252509392505050565b600080600060608486031215613cc657600080fd5b613ccf84613b0e565b9250613cdd60208501613b0e565b9150604084013590509250925092565b600060208284031215613cff57600080fd5b5035919050565b803561ffff81168114613b2557600080fd5b600080600080600080600080610100898b031215613d3557600080fd5b613d3e89613d06565b9750613d4c60208a01613d06565b9650613d5a60408a01613d06565b9550613d6860608a01613d06565b9450613d7660808a01613b0e565b9350613d8460a08a01613b0e565b9250613d9260c08a01613b0e565b915060e089013590509295985092959890939650565b60008060408385031215613dbb57600080fd5b613dc483613b0e565b9150613dd260208401613b0e565b90509250929050565b6020808252600e908201526d139bdd081cdd1c985d1959da5cdd60921b604082015260600190565b600181811c90821680613e1757607f821691505b60208210811415613e3857634e487b7160e01b600052602260045260246000fd5b50919050565b60008251613e50818460208701613b4c565b9190910192915050565b60006040820184835260206040818501528185548084526060860191508660005282600020935060005b81811015613ea95784546001600160a01b031683526001948501949284019201613e84565b5090979650505050505050565b60006020808385031215613ec957600080fd5b825167ffffffffffffffff80821115613ee157600080fd5b818501915085601f830112613ef557600080fd5b815181811115613f0757613f07613bd5565b8060051b9150613f18848301613beb565b8181529183018401918481019088841115613f3257600080fd5b938501935b83851015613f5057845182529385019390850190613f37565b98975050505050505050565b634e487b7160e01b600052601160045260246000fd5b600082821015613f8457613f84613f5c565b500390565b634e487b7160e01b600052603260045260246000fd5b60008219821115613fb257613fb2613f5c565b500190565b600060208284031215613fc957600080fd5b5051919050565b600060208284031215613fe257600080fd5b81518015158114613b4557600080fd5b600081600019048311821515161561400c5761400c613f5c565b500290565b60008261402e57634e487b7160e01b600052601260045260246000fd5b500490565b6020808252601c908201527f506c656173652070726f766964652076616c6964206164647265737300000000604082015260600190565b6020808252600f908201526e139bdd081dda1a5d195b1a5cdd1959608a1b604082015260600190565b60208082526025908201527f546865207661756c7420697320616c726561647920696e206f70656e20706f7360408201526434ba34b7b760d91b606082015260800190565b600060a082018783526020878185015260a0604085015281875180845260c086019150828901935060005b818110156141285784516001600160a01b031683529383019391830191600101614103565b50506001600160a01b0396909616606085015250505060800152939250505056fe000000000000000000000000bbeb90cfb6fafa1f69aa130b7341089abeef5811a264697066735822122040f6ea40c5612f08c39eded7df65a9c1e57cc93ce4f9d3db1c1ff7141caf62e764736f6c634300080a0033506c656173652070726f766964652076616c6964206164647265737300000000a26469706673582212201d60601be22262c966e0cd2772ba61cfae240c05dc757367cdbff2171a8d7a3764736f6c634300080a0033",
  "devdoc": {
    "kind": "dev",
    "methods": {
      "owner()": {
        "details": "Returns the address of the current owner."
      },
      "renounceOwnership()": {
        "details": "Leaves the contract without owner. It will not be possible to call `onlyOwner` functions anymore. Can only be called by the current owner. NOTE: Renouncing ownership will leave the contract without an owner, thereby removing any functionality that is only available to the owner."
      },
      "transferOwnership(address)": {
        "details": "Transfers ownership of the contract to a new account (`newOwner`). Can only be called by the current owner."
      }
    },
    "version": 1
  },
  "userdoc": {
    "kind": "user",
    "methods": {},
    "version": 1
  },
  "storageLayout": {
    "storage": [
      {
        "astId": 7,
        "contract": "contracts/vault_factory.sol:VaultFactory",
        "label": "_owner",
        "offset": 0,
        "slot": "0",
        "type": "t_address"
      }
    ],
    "types": {
      "t_address": {
        "encoding": "inplace",
        "label": "address",
        "numberOfBytes": "20"
      }
    }
  }
}